:1000000000802020C1070000BD070000BD070000E0
:1000100000000000000000000000000000000000E0
:10002000000000000000000000000000BD0700000C
:100030000000000000000000BD070000BD07000038
:10004000BD070000BD070000BD070000BD070000A0
:10005000BD070000BD070000BD070000BD07000090
:1000600000000000BD070000BD0700000000000008
:1000700000000000BD070000BD070000BD07000034
:10008000BD070000BD070000BD070000BD07000060
:10009000BD070000BD0700000000000000000000D8
:1000A000BD070000BD0700000000000000000000C8
:1000B000BD07000000000000BD070000BD070000F4
:1000C000002243088B4274D303098B425FD3030A97
:1000D0008B4244D3030B8B4228D3030C8B420DD3AA
:1000E000FF22090212BA030C8B4202D31212090238
:1000F00065D0030B8B4219D300E0090AC30B8B4276
:1001000001D3CB03C01A5241830B8B4201D38B0323
:10011000C01A5241430B8B4201D34B03C01A5241C8
:10012000030B8B4201D30B03C01A5241C30A8B420B
:1001300001D3CB02C01A5241830A8B4201D38B02F6
:10014000C01A5241430A8B4201D34B02C01A52419A
:10015000030A8B4201D30B02C01A5241CDD2C3090C
:100160008B4201D3CB01C01A524183098B4201D388
:100170008B01C01A524143098B4201D34B01C01A73
:10018000524103098B4201D30B01C01A5241C308EB
:100190008B4201D3CB00C01A524183088B4201D35A
:1001A0008B00C01A524143088B4201D34B00C01A46
:1001B0005241411A00D20146524110467047FFE7B2
:1001C00001B5002000F006F802BDC0460029F7D0B6
:1001D00076E770477047C04610B500F0B7FAFEE703
:1001E000F8B51A4A1A4B1B4F1B4E1C4D1C4C1D4890
:1001F0001D49FA50F250EA50E250C250CA501B4911
:10020000CA501B49CA501B49CA501B49CA508021B9
:10021000C905CA501949CA50194A1349043BFA5032
:10022000F250EA50E250C250CA5010491020CA5051
:100230000F49CA500F49CA500F49CA508021C905F9
:10024000CA500E49CA5000F019FBF8BD030000B1B6
:100250000408000000000A4000200A4000A0864078
:100260000080864000400840002086400000864014
:1002700000000F40008010400080464000004440D5
:100280000100002686209C2230B58024254B26497B
:100290009850264AA4028C50A02418518024E402CD
:1002A0008C50B82418518020800388508820043452
:1002B00018518024E4038C5084241C508020400179
:1002C00088508C2001341C5080258020ED00800156
:1002D00088505C658D509C65802424018C501449A5
:1002E00059605C685C6099609968996080215C687D
:1002F00089040C435C609C68214399608221D96029
:100300000C49902499618321D96219510A4C5C628D
:10031000D961023999679521084B49015850985085
:1003200030BDC0460080424000000A40D0120000AC
:1003300083000C00820004008300040000200A40B7
:10034000002103200C4B0D4A99500D490A68824345
:100350000A600C4A023899588143995099580A48C2
:10036000014099503021094B1A688A431A601A6873
:1003700021398A431A60704700F00A4008130000D0
:1003800000010B4008110000FFFEFFFF04010B40BD
:1003900030B51D4983B01D4800F0B4FA1C491B4814
:1003A0001A4D00F02BFB1B4A1B49AB5828000B4091
:1003B000AB50002300220093002100F011FB280025
:1003C0000022002100F0FCFAFA210124280000227A
:1003D000890000F0EBFA002328000022002100949D
:1003E00000F0FEFA28000122002100F0E9FAFA21CB
:1003F00001222800890000F0D9FA0322074BEC50B3
:10040000083BEA5003B030BDC80C000000A0864095
:10041000C00C0000041800007F00FFFF081100005E
:1004200030B51D4983B01D4800F06CFA1C491B48CB
:100430001A4D00F0E3FA1B4A1B49AB5828000B4049
:10044000AB50002300220093002100F0C9FA2800DD
:100450000022002100F0B4FAFA2101242800002231
:10046000890000F0A3FA0023280000220021009454
:1004700000F0B6FA28000122002100F0A1FAFA21CA
:1004800001222800890000F091FA0322074BEC506A
:10049000083BEA5003B030BDBC0C00000080864031
:1004A000B40C0000041800007F00FFFF08110000DA
:1004B00030B51D4983B01D4800F024FA1C491B4883
:1004C0001A4D00F09BFA1B4A1B49AB5828000B4001
:1004D000AB50002300220093002100F081FA280095
:1004E0000022002100F06CFAFA21012428000022E9
:1004F000890000F05BFA002328000022002100940C
:1005000000F06EFA28000122002100F059FAFA21C9
:1005100001222800890000F049FA0322074BEC5021
:10052000083BEA5003B030BDB00C0000004008406A
:10053000A80C0000041800007F00FFFF0811000055
:1005400030B51D4983B01D4800F0DCF91C491B483B
:100550001A4D00F053FA1B4A1B49AB5828000B40B8
:10056000AB50002300220093002100F039FA28004C
:100570000022002100F024FAFA21012428000022A0
:10058000890000F013FA00232800002200210094C3
:1005900000F026FA28000122002100F011FAFA21C9
:1005A00001222800890000F001FA0322074BEC50D9
:1005B000083BEA5003B030BDA40C00000020864088
:1005C0009C0C0000041800007F00FFFF08110000D1
:1005D00010B50649064800F095F90649044800F0B0
:1005E0009FF90122044B0249CA5010BD980C00002B
:1005F00000008640840C00000811000010B5094975
:10060000094800F041F99023C02207485B01C15816
:10061000D2000A43C2508022C15852000A43C2503D
:1006200010BDC046800C000000000F4070B5164998
:10063000164800F0CFFA1649144800F0A7FA8822AD
:10064000124C5201A358134925000B40A350D0234C
:100650001149605843401B041B0C43406350152153
:100660003F230E48245861400B40012163402B502A
:100670000B482B582C580B4063400B4063402B50C9
:10068000AB580B43AB5070BD7C0C00000080104099
:10069000700C0000FF7FFEFF10110000141100001D
:1006A0000411000070B51049104800F021F91049FC
:1006B0000E4800F0FDF80D4C0E4A0121A05825000F
:1006C00003004B409B059B0D4340A35012223F2348
:1006D00009482458624013406340084A2B50AB58E5
:1006E0000B43AB5070BDC046600C0000008046401C
:1006F000640C0000081100000C110000041100003F
:10070000802010B50849C00500F098F88C2380209F
:100710000022C0055B01C25088220121520183588A
:100720000B43835010BDC046580C00007047C046B4
:1007300088210022024B49015A5002495A50704701
:1007400000004440041100007047C04610B5FFF798
:1007500047FDFFF797FDFFF7F3FDFFF719FEFFF7E2
:100760005FFEFFF7A5FEFFF7EBFEFFF731FFFFF798
:1007700045FFFFF75BFFFFF795FFFFF7C1FFFFF7AF
:10078000D5FFFFF7D5FFFFF7DFFF00239C21064AC7
:100790005354064A5354064A1C315354054A535481
:1007A000054A9439535410BD90022020F0012020B6
:1007B000340120207800202050002020FEE7C04691
:1007C0001548164B10B5984207D2013B1A1A9208E9
:1007D00001321349920000F033FA1248124B98424A
:1007E00007D2013B1A1A920801321049920000F018
:1007F00027FA0F480F4B984207D2013B1A1A92086A
:1008000001320021920000F0EFF900F0F5F9FFF756
:10081000E3FCFFF7D3FF10BD000020205000202094
:10082000580D00000000202000002020580C00007F
:1008300050002020300320207047C046A9230C4AD6
:1008400030B50D7884581B062B430A4D63402B406E
:10085000634083508822E025520184584B68ED04A0
:1008600063402B40634083504A78034BC25030BDF5
:1008700008080000030000FF10110000831E043B65
:10088000C046FCD27047C0460C2330B5074C0A78EE
:1008900005596A4013406B4003510723043C055936
:1008A0004A786A4013406B40035130BD0410000089
:1008B000882230B54D880B8952012B438D7984589D
:1008C0002B43094D63402B4063408350CD798B8887
:1008D00009782B430B43BA21044A490084586340EA
:1008E0000B406340835030BD7F3300000411000093
:1008F0000A78034BC2504A78043BC2507047C04646
:10090000041000000A78044BC2504A78083BC250D9
:100910008A78024BC2507047081000000C1100008A
:100920001A4B4A6830B5C2500B78222B08D8184AA7
:100930009B00D3589F46174A174C83582340835037
:100940000A69164B164DC250164ACB68845863404C
:100950002B4063400F4C83500359134A13400351FB
:100960000B780A7A05591A433F236A4013406B40BB
:10097000035130BD8023C025064A9B058458AD0530
:1009800063402B4063408350DAE7C04608180000FC
:10099000CC0C000004180000FFFFFFCF101800006F
:1009A00077770200301800007F00FFFF034B9200B2
:1009B0009C466044801801607047C04610180000D3
:1009C000064B92009C4660448218E0201368400366
:1009D00059400140594011607047C046301800002E
:1009E00030B5054D03ACAC4624786044A4001A43EE
:1009F00000190A43026030BD50180000F0B54B7971
:100A0000002B2CD00B79002B00D18FE0202B00D0B5
:100A100087E0494C494B06591A007240484D2A401C
:100A200072400251474A845863402B4063408350D0
:100A3000454B464CC2582240C250454A8358234039
:100A4000835000238F24434A8350434A8350434AB0
:100A50008358A3438350424A8358A34383500B795E
:100A60000A688C79002B53D0202B13D03D495208B3
:100A70004250A022920011003B4D47597940304E20
:100A8000314079404151394945586A4032406A40C5
:100A900042501BE03349013A4250284A324D11007E
:100AA0004759274E79403140794041512F494558A7
:100AB0006A4032406A4042508022C0262C4992054A
:100AC0004558B6056A4032406A404250294A1F4D97
:100AD0008158234329408150274902244258234307
:100AE0002A40425000228F252449254C4250254956
:100AF00042502C314258AA43425023494258AA43FB
:100B000042501B4A81584B4023404B408350F0BD1C
:100B10001449013A144D4250475988223900514036
:100B2000ADE7A023044C9B00065975E7024C8823CF
:100B3000065932005A4071E778180000010400009D
:100B4000DBB6C1FF7C180000381800008888FDFF64
:100B50003C180000581800005C18000088180000BD
:100B60008C180000081800007018000074180000AD
:100B7000041800003018000034180000501800005D
:100B8000BFFF00305418000084180000882230B5E0
:100B9000012452018358A34383508D780B888458D5
:100BA0002B438D882B43094D63402B40634083507A
:100BB000CA798B79064C13430A7A055913437E226E
:100BC0006B4013406B40035130BDC04618670200B4
:100BD000041100000A78034BC2504A78083BC25007
:100BE0007047C0460810000003008218934200D1ED
:100BF000704719700133F9E770B500260C4C0D4DA4
:100C0000641BA410A64209D10026FFF715FE0A4C6A
:100C10000A4D641BA410A64205D170BDB300EB5869
:100C200098470136EEE7B300EB5898470136F2E7F4
:100C3000580D0000580D0000580D0000580D000020
:100C4000002310B59A4200D110BDCC5CC4540133CE
:080C5000F8E7000000000000BD
:100C5800010500000000000008000000040020005A
:100C6800000007100000000000001800000000301D
:100C7800000000000800000008000000000000005C
:100C8800000000000000000000000000000000005C
:100C980008000000E8030000000100000800000050
:100CA800E80300000001000008000000E80300005D
:100CB8000001000008000000E80300000001000037
:100CC800080000003609000040090000360900004D
:100CD80040090000400900004009000040090000E8
:100CE80040090000400900004009000040090000D8
:100CF80040090000400900004009000040090000C8
:100D0800400900007409000040090000740900004F
:100D180040090000400900004009000040090000A7
:100D28004009000040090000400900004009000097
:100D38004009000040090000400900004009000087
:100D4800400900007409000040090000740900000F
:100D580004002020000000000000000068000000DF
:100D6800D0000000000000000000000000000000AB
:100D7800000000000000000000000000000000006B
:100D8800000000000000000000000000000000005B
:100D9800000000000000000000000000000000004B
:04000003000000C039
:00000001FF
