:1000000000802020D52F0000D12F0000D12F00002C
:1000100000000000000000000000000000000000E0
:10002000000000000000000000000000514A000035
:100030000000000000000000014A00004D480000E0
:10004000D12F0000D12F0000D12F0000D12F0000B0
:10005000D12F0000D12F0000D12F0000D12F0000A0
:1000600000000000D12F0000D12F00000000000090
:1000700000000000D12F0000D12F0000D12F000080
:10008000D12F0000D12F0000D12F0000D12F000070
:10009000D12F0000D12F0000000000000000000060
:1000A000D12F0000D12F0000000000000000000050
:1000B000D12F000000000000D12F0000D12F000040
:1000C000002243088B4274D303098B425FD3030A97
:1000D0008B4244D3030B8B4228D3030C8B420DD3AA
:1000E000FF22090212BA030C8B4202D31212090238
:1000F00065D0030B8B4219D300E0090AC30B8B4276
:1001000001D3CB03C01A5241830B8B4201D38B0323
:10011000C01A5241430B8B4201D34B03C01A5241C8
:10012000030B8B4201D30B03C01A5241C30A8B420B
:1001300001D3CB02C01A5241830A8B4201D38B02F6
:10014000C01A5241430A8B4201D34B02C01A52419A
:10015000030A8B4201D30B02C01A5241CDD2C3090C
:100160008B4201D3CB01C01A524183098B4201D388
:100170008B01C01A524143098B4201D34B01C01A73
:10018000524103098B4201D30B01C01A5241C308EB
:100190008B4201D3CB00C01A524183088B4201D35A
:1001A0008B00C01A524143088B4201D34B00C01A46
:1001B0005241411A00D20146524110467047FFE7B2
:1001C00001B5002000F006F802BDC0460029F7D0B6
:1001D00076E770477047C046844608006146FFE7EF
:1001E0001FB500F0F1F9002801D40021C8421FBD5D
:1001F00010B500F079F94042013010BD10B500F0A3
:10020000E3F9002801DB002010BD012010BDC0462D
:1002100010B500F0D9F9002801DD002010BD012043
:1002200010BDC04610B500F087F9002801DC0020A1
:1002300010BD012010BDC04610B500F07DF90028AA
:1002400001DA002010BD012010BDC0469E2110B56E
:10025000C905041CFFF7F0FF002803D1201C00F0A3
:100260008FFD10BD9E21201CC90500F047FB00F04A
:1002700087FD80231B069C466044F2E770B502F0C0
:1002800077F800220B4B0D00040001F04DF902F04D
:10029000D5F8060002F048F80022074B01F044F9B7
:1002A00002000B002000290001F006FC02F0C6F855
:1002B000310070BD0000F03D0000F041F0B5464651
:1002C0004F46D6464502C0B5C30F470098460E1CA0
:1002D0006D0A3F0E5BD0FF2F21D08023ED00DB04A1
:1002E0001D43002399469A467F3F74027300640AB7
:1002F0001B0EF60F002B20D0FF2B43D080220020B6
:10030000E400D20414437F3B4246FF1A4B4672403E
:100310000F2B00D99DE071499B00CB589F46002DC3
:100320005AD108239946063B74029A467300FF2768
:10033000640A1B0EF60F002BDED1002C3BD10123EB
:1003400042464946724019430E2918D8644889002C
:1003500041588F465346022B00D1B8E0032B6ED094
:1003600042462C00012B40D100200024C005204330
:10037000D2071043E0BCBA46B146A846F0BDFF2004
:100380000024F3E7002C20D10223FF3FD8E7002D03
:1003900005D104239946033B00279A46A5E7280088
:1003A00002F02EF87627431F9D4000237F42994696
:1003B0009A463F1A99E7200002F022F8431F9C401A
:1003C00076235B421B1A00209EE703234A461A430A
:1003D00091460320FC3397E70C239946093BFF27FE
:1003E0009A4682E703282CD0320038007F3000285C
:1003F00047DD630704D00F232340042B00D00434CF
:10040000230103D53800374B80301C40FE28B6DC72
:10041000A401640AC0B2A9E780240022FF20E403FB
:10042000A4E78023DB031D4201D01C420BD08024B3
:10043000E4032C4364024246FF20640A96E74646E2
:100440002C008023DB031C4364023200FF20640A7B
:100450008CE76D01600185422DD21B230024013FF2
:100460000126290064006D00002901DB854201D3CB
:100470002D1A3443013B002BF3D16B1E9D412C43BD
:10048000B3E701231B1A1B2B00DD6DE721009E370C
:10049000D940BC400B00611E8C412343590704D056
:1004A0000F211940042900D00433590113D49B01B2
:1004B00000205C0A5AE71A2301242D1AD0E7981E5F
:1004C00043425841404232000024C0B24EE7424607
:1004D000FF2000244AE70120002447E7105F0000C6
:1004E000505F0000FFFFFFF770B542004E024C0066
:1004F00045026D0A120EC30F760A240EC90FFF2A99
:1005000010D0FF2C0CD00120A2420AD1B54208D154
:100510008B420FD0002A04D12800431E984100E0EE
:10052000012070BD0120FF2CFBD13543F9D14B4098
:100530001800F6E70020F4E730B5420044024D020F
:10054000C30F4800640A120E6D0A000EC90FFF2A7D
:1005500018D0FF280AD0002A1ED100280AD1002D69
:1005600029D0002C2DD14800013830BD002D25D1D7
:10057000002A01D1002CF6D08B4219D001205B4219
:100580001843F2E7002C19D1FF28F7D1002D15D11F
:1005900000208B42F2D1E8E70028EFD08B42EDD16A
:1005A0008242EBDC04DBAC42E8D80020AC42DCD277
:1005B00058000138D9E7002CD7D0DFE702204042AD
:1005C000D3E78B42DAD1EEE730B5420044024D0268
:1005D000C30F4800640A120E6D0A000EC90FFF2AED
:1005E00017D0FF280AD0002A1BD100280AD1002DDD
:1005F0001DD0002C2DD14800013811E0002D0ED166
:10060000002A01D1002CF6D08B420CD158000138C1
:1006100006E0002C03D1FF2805D1002D15D00220C3
:1006200030BD002806D101205B421843F8E7002CBA
:10063000F6D0F8E78B42F6D18242F4DCE6DBAC423E
:10064000F1D80020AC42EBD2E0E700208B42EAD1A7
:10065000E6E78B42E7D1F2E7F0B54F464646D6468D
:100660004502C0B546000F1C6D0A360EC40F002EA1
:1006700000D1CDE0FF2E72D08023ED00DB041D43BE
:10068000002399469A467F3E7B025B0A98467B0090
:100690001B0EFF0F002B72D0FF2B00D1A9E07F3B78
:1006A000F6184B460A2B00DD85E043468022DB002E
:1006B000D2041A434B4690467C400022022B0FDDA9
:1006C000494601238B40A621C9000B4200D072E0AD
:1006D000902189000B4200D0DAE08821194267D1CD
:1006E000280C42462D042D0C4346290012041B0CF5
:1006F000120C51435D4342435843AD180B0C5B1938
:100700009A4203D9802252029446604409041A0492
:10071000090C52189501691E8D411B0C920E1B1875
:1007200015439B011D431B0100D5CFE030007F30F6
:10073000002800DCB1E06B070BD00F2332002B4008
:10074000042B06D004352B0103D5803210006A4BF0
:100750001D40FE2864DCAB015B0AC0B21FE0002D27
:1007600000D08FE008239946063B9A467B025B0A3D
:1007700098467B00FF261B0EFF0F002B8CD14346B3
:10078000002B5CD14A4601331A43914613000A2AD2
:1007900011DC01227C40022B92DC00200023C005EA
:1007A0001843E4072043E0BCBA46B146A846F0BD72
:1007B0003C00454692465346022B31D0032B11D0C4
:1007C000012BEAD030008030721C002866DD6B07F8
:1007D000B9D00F232B40042BB4D1B4E70F2A7AD021
:1007E0003C0045468023DB032B435B02FF205B0A72
:1007F000D5E74346FF36002B34D14A460233134334
:100800000A2BD8DC7C40002A0AD09946022257E7FE
:10081000002D08D104239946033B00269A4633E76E
:10082000FF200023BBE7280001F0EAFD7626431FE6
:100830009D400023764299469A46361A24E7404660
:1008400001F0DEFD4B46361A763E0A2BB3DC4346FA
:100850000538834098464B4600227C40022B00DD41
:100860002EE73DE703234A461A4313000A2AB5DC64
:1008700001229A40882113007C400322194200D1B2
:100880002EE795E70C239946093BFF269A46FBE69F
:1008900080230024FF20DB0381E7320001231B1AA1
:1008A0001B2B00DD79E79E3229009540D9406A1E56
:1008B00095410D436B0704D00F232B40042B00D030
:1008C00004356B0113D50120002368E701236A0872
:1008D0001D40154376E78023DB031D4282D042464C
:1008E0001A4200D07EE73C00FF20134357E7AB01DC
:1008F00000205B0A53E7C046FFFFFFF7F8B5474605
:10090000CE464B02460080B5C40F4702580A8446C3
:1009100048007A0A360EBF09000ECD0F9B09FF284A
:100920006DD001214D40311AAC423AD0002900DC93
:100930009CE1002800D19EE0FF2E00D188E08022BB
:10094000D20413431B2900DCF6E0013F7A0100D4F6
:1009500079E001277F42BF01BB099846404601F07C
:100960004FFD434605388340864200DCCCE0B44F5F
:10097000311A1F405A0768D00F221340042B64D04D
:1009800004377B0161D5481CFE2900D081E0FF209F
:100990000023C0051843E4072043C0BCB946B04655
:1009A000F8BD002900DC79E1002876D1002B4CD07D
:1009B000481E012900D147E1FF2949D01B2871DCDD
:1009C00001001A002020CA40411A8B40591E8B4159
:1009D0001343FF188023DB041F4200D1B8E0711CD1
:1009E000FE2ED4D0012297483A407F080740174393
:1009F0007A0700D096E01F42C5D1FA0855E03100D1
:100A0000FF398946002B2CD101214D40AC4200D149
:100A1000B4E0494600294CD0002E00D0F9E0FF2177
:100A2000002F00D108E14A1E012900D156E1FF291B
:100A300000D142E11B2A00DC24E15F1E2C000600ED
:100A40007A0100D585E731000437FA08FF292CD157
:100A5000002A9CD08023DB0313435B02FF205B0A48
:100A600097E7AC4200D1A7E0002922D0002ED6D0D3
:100A700062462C00EEE7002BE7D0481E012936D055
:100A8000FF29E5D001005DE701203B007A0100D499
:100A900057E1C0B2BB015B0A7BE7FF2ED8D01B2910
:100AA00000DC9FE031000537FA0853025B0AC8B248
:100AB0006FE7FE20711C084254D1002E00D0B1E037
:100AC000002F00D102E1002B00D1F9E08021FA1AB9
:100AD000C9040A4200D13BE10124DF1B2C40002F56
:100AE00049D001200F42D5D10021FA08DDE7FF1AD5
:100AF0007B0100D4DEE0BD01AD09280001F080FCDF
:100B00002B000538834001262022811B0131521A17
:100B10001F009340CF405A1E93411F432BD000210A
:100B20007B07B1D00F233B40042B00D028E77B018B
:100B300000D528E7FA08B8E71A002020CA40411A71
:100B40008B40591E8B411343FF1A7B0100D502E7EE
:100B50007B0700D10DE10F2331003B40042B00D077
:100B60000EE772E7FA1A9046520156D44346002B1C
:100B700000D0F3E60024002000230AE749460029BC
:100B80001CD0002E00D002E7FF21002F55D04A1EB6
:100B9000012959D0FF2900D190E01B2A00DD91E006
:100BA00011003A002025CA40691A8F40791E8F41F2
:100BB00017430600FF180DE7002926D1FE20711CFF
:100BC000084213D1002E00D096E0002F00D1B4E0EF
:100BD000002B75D0FB185A0100D4B2E09B015B0AD0
:100BE000FD38D6E68022D2041343EAE6FF2900D17D
:100BF000CDE6FA185208530705D00F23171D1340EE
:100C0000042B00D021E7D2084FE7002EBCD062466B
:100C100020E72C00FF200023BBE60124DB1B9846C5
:100C20002C409BE6002F75D1002B00D096E080234E
:100C30000024FF20DB03ACE62C001F0005E7C046C4
:100C4000FFFFFFFBFFFFFF7DFB185A0100D48DE083
:100C50004A4A5B081A40590700D18CE00F210B402B
:100C60000D39042BCFD00221171DEEE6002900D14B
:100C70001FE7821B1100002E00D1D1E68021C9049C
:100C80000F43D7E639002024D140A21A97407A1E9C
:100C900097410F432C000600DF1B56E700298DD03B
:100CA000811B002E00D170E71B290BDC8022D204AF
:100CB000174376E70121FA08F7E62C006246C7E6FB
:100CC0000021F2E605330100DA08EEE6002B00D140
:100CD00050E70124002162462C40E6E6DA1B53016E
:100CE00032D592019409200001F08AFB23000538D7
:100CF00083402C00012607E7002FDFD0002B17D000
:100D00008023DB039A4200D2A4E69C4500D3A1E6EF
:100D100062469FE6002B0BD08023DB039A4200D271
:100D200098E69C4500D395E6012462462C4091E666
:100D30008023DB03FF2013432BE60020002B00D190
:100D400027E60021DA08B0E62C000121D208ACE643
:100D5000002A00D10EE70021D208A6E680236246D1
:100D60000124DB03FF2013432C4012E60121DA08A3
:100D70009BE6310069E60221D20896E6FFFFFF7D7F
:100D800041024200C30F490A0020120E7E2A03DDF1
:100D90009D2A02DD094A981870478020000401430B
:100DA000952A07DC9620821AD1404842002BF3D1C5
:100DB0000800F1E7963A9140F7E7C046FFFFFF7F52
:100DC00070B5002812D0C317C5185D40C40F2800A5
:100DD00001F016FB9E231B1A962B0FDC082838D037
:100DE000083885406D026D0AD8B202E00024002068
:100DF0000025C0052843E407204370BD992B14DC6F
:100E0000421F95402A001549114055071CD00F2557
:100E10002A40042A18D00431CA08490115D59F2355
:100E20005202181A550AC0B2E3E7020029001B3229
:100E300091404A1E91410522121AD5402A000A43C8
:100E4000064911405507E2D1CA085202550AD8B2E4
:100E5000CFE76D026D0A8E30CBE7C046FFFFFFFB88
:100E600010B5041E0DD001F0CBFA9E231B1A962B51
:100E70000CDC082834D0083884406402640AD8B2F4
:100E800001E000200024C005204310BD992B13DC95
:100E9000421F9440144A224061071CD00F21214078
:100EA000042918D00432D408520115D59F236402B6
:100EB000181A640AC0B2E6E7020021001B32914012
:100EC0000A00511E8A410521091ACC401443064AE2
:100ED00022406107E2D1D4086402640AD8B2D2E7A2
:100EE0006402640A8E30CEE7FFFFFFFBF0B5DE46FA
:100EF000454657464E46E0B587B0009201930B0336
:100F00001B0B9B46CA0F4B00040080465B0D0292F0
:100F100000D1BFE08F4A934238D05946420FC900F2
:100F20000A43802109041143C20090468A4A894637
:100F300092469A44002300240393009E019F3B03A2
:100F40001B0B7A0030009B46520DFD0F002A00D18A
:100F50007FE0804B9A426ED05946730FC9000B4315
:100F60008021090419438B467B49F3008C46514686
:100F700062448A1A92460021029E6E40F6B20F2CFD
:100F800000D9F9E0754AA400125997465A4602431F
:100F9000914600D0B6E09A46022390460824039377
:100FA000CBE72E0000210023002288461B051343B7
:100FB000F60733434046190007B0F0BCBB46B246C3
:100FC000A946A046F0BDCB464346029D039902299F
:100FD00000D1FAE1032900D1A1E00129E1D0604A62
:100FE000524490464446002C00DC00E25A0704D0EC
:100FF0000F221A40042A00D07FE22E00DA085B4656
:10100000DB0106D55946574B802419408B46E40036
:101010005444554B9C4209DC5B465B07134398469E
:101020005B4664055A02120B630DBFE700210022E4
:101030008846484BBAE75B46009A13434B4A9446AE
:10104000E244002B59D1022214430022022193468C
:1010500092E75B46009A134349D05B46002B00D1D0
:10106000A4E1584601F0CCF9030002000B3B1D2718
:10107000009EFB1A11005846DE40083988403300B4
:1010800003439B46009B8B40394952448A460021CA
:10109000924471E75B460343994621D05B46002B9F
:1010A00000D171E1584601F0ABF90B235B429C463D
:1010B0000200844466461D239B1B260011005846EF
:1010C000DE400839884033000343994623008B40B3
:1010D0009846284B00249B1A9A46002303932CE73A
:1010E000002398469A4601330424039325E70122FE
:1010F00014430022012193463EE7032303211C43AE
:10110000330039E79A460323D9460C24039314E7A6
:1011100000238022984600260E4B120346E78022C9
:10112000594612030A43120398462E00094B120B2C
:101130003CE7802249461203114202D0594611422F
:10114000F0D080224B4612031A431203029E014B39
:10115000120B2BE7FF07000001FCFFFF8C5F000074
:10116000FF030000FFFFFFFEFE07000001F8FFFF86
:10117000F30300000DFCFFFFCB4500D2FAE000D1E5
:10118000F5E00122524294460022444648469046E9
:10119000E2445A461F0E12021B020293130C994698
:1011A00017433B041B0C49460093FFF70FF8009AC6
:1011B0000B044243210C050019438A4207D9C9197F
:1011C000013D8F4203D88A4201D9851EC919881A68
:1011D0004946FEF7FBFF009A240442430904240C0D
:1011E00003000C43A24204D9E419013BA74200D8F2
:1011F000F7E00299A01A2D040C0C09041D43090CF8
:101200002A0C2B04AB460D001B0C5D430591634378
:101210005143049462435B182C0CE318994203D9A0
:10122000802149028C466244190C2D041B042D0CAC
:101230008A185D19904200D287E000D182E04346CF
:101240005D1BA8459B41801A5B42C01AB14B5344B9
:1012500098461C00874200D10CE14946FEF7B6FFD4
:101260000200009B03905A430B04290C19438A4245
:101270000AD90300C919013B03938F4204D88A425B
:1012800002D9831E0393C919881A4946FEF79EFFA7
:101290000A00120494462A0465460099120C414340
:1012A00003002A43914207D9D2190138974203D843
:1012B000914201D9981ED219039B521A1B04034371
:1012C0000598190C05008C461904090C4D438946F4
:1012D000614600956546484304994D43AC464D46EA
:1012E0004D432918009D2D0CA9464944884203D935
:1012F000802040028146CC44009D080C2D04090446
:101300002D0C60444D1982420FD30BD001221343A0
:10131000814A92456CDB1A1D9A429B415B42D2087E
:101320009B446CE6002D00D193E0591EBA188C4600
:10133000BA4200D285E0824200D2C7E000D1D5E0B7
:101340000B00E3E7A84500D379E75B46591E029BF3
:101350009C46E0441C0098459B415B42DB19C01849
:10136000874238D2824278D875D08B4667E74345AA
:1013700000D906E74A46D4075008424652081443AB
:101380004246D207904604E701F03AF815239C46FE
:1013900084440200634620321C2B00DC8AE62300D2
:1013A0000838834099460023984692E601F028F8D1
:1013B00003000200153320321C2B00DC57E6009995
:1013C0000838814000238B465EE600212E00002273
:1013D0008846524BEAE58742C7D14445C2D98B467D
:1013E0002DE7A24200D804E7831EE41901E72E008E
:1013F00001224146521A382A00DDD3E51F2A3FDC7C
:1014000047481C005044594683408140D440581EF0
:10141000834121430B435946D1400A00590709D063
:101420000F211940042905D0191D99429B415B42A7
:10143000D2180B00110268D5002101230022884632
:10144000B4E50B00824200D060E7029A954200D0DA
:101450005CE73500C6E5454587D902235B429C46DB
:10146000029BE3449C46E04498459B415B42DB1968
:10147000C018E4E6002B36DD012300229B44BEE5C4
:101480001F2140464942091A5846C8400100202AF7
:1014900004D05846234A5244904003435A1E934175
:1014A00007200B43010000221940184209D00F21E8
:1014B000194004291FD0181D984289410300494250
:1014C0004907DB080B43984600236FE50299023B6E
:1014D00049008C4602998C4589414942C9195218E4
:1014E00061460291AEE701235B4281E70299A9427E
:1014F000ECD36346A9E70021E3E71A1D9A429B411A
:101500005B422E00D2089B4479E551075202120B30
:10151000D7E7C046FF03000002FCFFFFFF07000003
:101520001E0400003E040000F0B557464E464546F6
:10153000DE46E0B51F000B031B0B16009846CA0FD2
:101540004B000400924685B05B0D00D1C2E1CC4A4D
:10155000934200D128E14146420FC9000A4380214D
:1015600009041143C2009146C64A884693469B44EB
:101570000023002501933C037A00FB0F3000240B6D
:10158000520D009300D185E1BD4B9A4200D160E13C
:10159000BC4B9C46624493440A2D00DD14E1730F5A
:1015A000E4001C4380231B042343F00052460099AF
:1015B00000264A409246022D11DD0122AA40A621B2
:1015C0001400C9000C400A4200D0FDE090218900BF
:1015D0000A4200D0D4E18821114200D0EFE0494610
:1015E0004A460904140C090C020C0F0015000004F3
:1015F000000C654347430195B9462F000D000600D6
:101600005543AC464D4666432D0CB4446544AE424A
:1016100005D93E0080277F02BC46664401964F46AE
:101620003F043F0C2E0C2D04ED1902951D0C1B04DC
:101630001B0C00951D001F0065434F43AC46009DE9
:1016400069436C433D0CA946614449448C4503D928
:1016500080256D02AC4664443F040D0C3F0C090428
:10166000C919AC467518039545462E04360C2F0C47
:10167000350045437843804638006444AC462D0C21
:10168000A9465043724342444A44904503D98025B9
:101690006D02A8464044150CA84665462D042D0C45
:1016A000AC4635005D4312046244AC467B43009D6A
:1016B000404498462B006E4365467B4346442D0CC0
:1016C000AD191F000093A84504D980235B029846FA
:1016D00047440097039B019E98462B044644984636
:1016E00063468E4289411B041B0C4344B618494291
:1016F0001B195F1896429241BC4652428046914661
:101700008C458941A3429B41E044C14449425B422C
:10171000914592410B43804589412D0C49425242EB
:101720000A435B199B18009A029994464A466344FF
:101730005B02D20D1A43904672020A43511E8A413F
:10174000F60D16434A4652021643B146DB0154D405
:101750004D4A5A44002A00DC18E133005B0715D0DB
:101760000F215B463140042910D04946081D4845E9
:1017700089418146494288444146C90106D54146CE
:10178000424A114080228846D2009A18404B9A4221
:1017900000DD2BE141464B464C07DB081C4352055C
:1017A0004B021B0B520D1AE042460243914600D0F9
:1017B000E0E09B460223904608250193DBE6009A71
:1017C0009846924681460196019B022B00D10DE17D
:1017D000032B35D0012B1BD100220023002412053E
:1017E0001A435346DB071A432000110005B0F0BC32
:1017F000BB46B246A946A046F0BD0122730832405E
:1018000013434246D2071343994643465B08984622
:1018100080225B46D2005A440133002A00DCB6E045
:1018200049464907A8D00F214846014004299CD1C8
:10183000A2E70F2D00D1FDE0009BA0469A46B146DD
:10184000802342461B0313431B034C460C4A1B0BCD
:10185000C5E70B4933008C462343E344002B77D183
:10186000022129430A29AFDC5046009C6040824691
:10187000002D00D10EE10D00002002269DE6C0469D
:10188000FF07000001FCFFFFFF030000FFFFFFFE5A
:10189000FE070000230033434BD0002C00D1BBE0F7
:1018A000200000F0ADFD030002000B3B1D20C31A19
:1018B0003000D84011000300300008398C408840C7
:1018C000234359468A1A78498B4693440A2D00DCF3
:1018D0006CE679E743460343994623D04346002B01
:1018E00000D187E0404600F08BFD0B235B429C4615
:1018F0000200844411004046083988401D23804678
:1019000060461B1A2000D840030040460343984617
:1019100023008B409946644B00259B1A9B4600236D
:10192000019328E6002398469B4601330425019342
:1019300021E6012215430A2D00DD45E752460099B4
:101940004A409246022D00DC46E70020012634E69C
:1019500003231D430A2D00DD6BE75346009A8821BF
:1019600053400122AA409A4603262300114200D187
:1019700035E624E79B46032381460C250193FAE5CF
:1019800000239A468023494A1B0328E75B4601212E
:10199000891A382900DD1FE71F295ADD1F20404220
:1019A000821A4046D040202908D0414A94464246F7
:1019B00063449A4013004A461A4391464A46072117
:1019C000531E9A410C00024300231440114209D0D7
:1019D00008311140042960D0111D9142A4410A0030
:1019E00064426407D20814430022F8E6002300246E
:1019F0002E4AF4E600F004FD15239C4684440200C0
:101A0000634620321C2B00DC74E700239946230038
:101A10000838834098467EE700F0F2FC030002009D
:101A2000153320321C2B00DC40E73300083883409C
:101A3000002046E7802342461B031A4200D1FFE6FE
:101A40001C4200D0FCE6009A234392463400174A19
:101A5000C5E6184A404694464A4663449840CA4000
:101A600010434A469A40531E9A4143460243CB4094
:101A7000510709D00F211140042905D0111D9142B1
:101A8000924152429B180A00190208D501220023F4
:101A90000024A4E600230024A1E60024A2E75C07BA
:101AA0005B021B0B9EE7C0460DFCFFFFFF0700001B
:101AB0003E0400001E040000F0B54E464546DE46DA
:101AC0005746E0B583B0009001910D034E00019997
:101AD000760DCC0F690A009D6D0F0D4300990092A1
:101AE0000193C8001903019BCB4A5B005B0D99462B
:101AF000019B8346DB0F98464B0A0099490F194317
:101B0000009BDB009C469A46914500D173E001237F
:101B100047465F404B46B846F31ABC4216D0002BEE
:101B200000DC9AE24F46002F00D082E067460F4368
:101B300000D13AE15F1E012B00D1A4E2934200D113
:101B40002EE1382F00DD43E23B003EE1002B00DCBC
:101B5000D7E24F46002F00D0F8E067460F4300D190
:101B600023E15F1E012B00D157E2934200D117E120
:101B7000382F00DC04E380221204154200D1AAE3CE
:101B80001E0015000027A44B01369E4200D103E140
:101B90000122A24B3A401D4079081143EA070A434B
:101BA0006D08530709D00F231340042B05D01700ED
:101BB0003A1DBA42BF417F42ED192B0200D477E3B0
:101BC000954901368E4200D1E6E0944973050D40F7
:101BD0005B0D6907D2086D020A432D0B1B052B43D1
:101BE000E40723431000190003B0F0BCBB46B24623
:101BF000A946A046F0BD8A4BF21863460B434CD071
:101C0000444550D0002A6CD0002E00D17DE16346BF
:101C100044464F07DA081743C8083A00024300D188
:101C2000CDE080252D0305432D033A007A4B2D0B83
:101C3000D4E7964200D1B3E0382B00DCC2E0471E67
:101C4000B842804140422D1A2B02B1D50127754D73
:101C50007F42280000F0D4FB0838202339001A1AEC
:101C60008540D14087402943B04200DA45E1801BDE
:101C700001301B1A3D009F40C5407A1E97410A0063
:101C80009A402F433A43C14013000D0000260B43F6
:101C900000D086E700220025A0E7474601235F40E9
:101CA000B8464445AED1002A00D1EFE0002E00D066
:101CB00088E14B462A00024300D1A0E25A1E012BC4
:101CC00000D1B7E2544EB34200D17BE1382A00DCA8
:101CD00012E380252D04294200D112E31E000027C3
:101CE00051E7514A731C134200D0F4E062462B00C6
:101CF0000A430343002E00D074E1002B00D123E2FD
:101D0000002A00D1E0E06346C71AB842924180261B
:101D10006B1A52429B1A3604334200D1C1E2634629
:101D2000181A844592414D1B5242AD1A01240200FB
:101D300043462A431C40002A00D1DBE0354200D153
:101D4000E9E2364B02001D40012342E7964227D0CC
:101D5000382B00DD11E18022120411431F2B00DD1E
:101D6000A1E120220F00D21A914697406246DA4044
:101D70001743B84662464F46BA40D940571EBA414B
:101D800047466D1817433F188742804140422D183F
:101D90002B0200D5F7E634E03300002500221DE7D2
:101DA000C0086F070743E80837E7C7086A07174303
:101DB000194AE808934200D12FE73A00D8E0164BC1
:101DC00000250BE78022120411431F2B00DDB7E032
:101DD00020220F00D21A914697406246DA401743FC
:101DE000B84662464F46BA40D940571EBA414746A8
:101DF0006D1A1743C71BB842804140422D1A2B026F
:101E000016D47B0700D179E20F233B40042B00D08E
:101E1000CEE63300FF08C9E7FF070000FFFF7FFFA2
:101E200001F8FFFFFFFF7F00FE0700004446012688
:101E30006D026D0A002D00D00BE7380000F0E0FACB
:101E4000030018301F2800DC07E73900083B9940E1
:101E5000864200DD87E0831B581C1F2800DC14E24B
:101E60000A001F3BDA40202805D040231B1A994066
:101E70004B1E99410A43002A3CD00026530700D04C
:101E800091E6170035003300FF088FE7CA4A731C3C
:101E900013427AD12B000343002E00D092E1624618
:101EA0000A43002B00D1F4E1002A0DD06346C71885
:101EB000874280416D1840422D182B0200D512E256
:101EC0003A00BB462A4315D05B466A07DF083A430F
:101ED0000023E8084CE06346C71AB84292416B1AE7
:101EE00052429B1A1A0200D587E03A001D001A439D
:101EF000A0D100240023002570E6B04D361A0D4015
:101F00007B0700D080E7330084E74B462A0002437A
:101F10007ED05A1E012B00D11FE1A94CA34200D153
:101F200098E1382A00DC9CE16246571EBC4592418C
:101F300052428D1A44461E002A0200D586E637E634
:101F40001A000F00203AD740B846202B05D0402277
:101F5000D31A994063460B439A4657467B1E9F41CE
:101F600043461F4346E7954A331A11404A07C808BB
:101F700005035B052D0B5B0D30E680231B041D4222
:101F800000D1FBE01D000027FDE58D4A934200D102
:101F900003E762468218824280416918404208186D
:101FA000C707520817434508520700D4AEE10F2275
:101FB0001E003A40042A00D0FAE5FF086A073A43B7
:101FC0000009D5E763464F07DA081743C80824E637
:101FD000471EB842804140422D1A1E002A0200D5F9
:101FE00034E6E5E5002B00D00DE1002A00D069E1E0
:101FF00080250024724B2D03F0E563461F1ABC4573
:102000009241012443464D1B5242AD1A1C4011E738
:10201000624644460D00D708C8E66346C6188642A5
:1020200080416918404209180B0200D40CE1634B4F
:1020300070081940CB0703434A08400700D43BE12E
:102040000F201840042800D136E11F1D9F42AD41EA
:102050006D420223AD18FF08A8E6002B00D140E630
:102060004B469B1B002E00D150E7382B2EDD6346DC
:102070005F1EBC45924152428D1A44464E462B0289
:1020800000D5E3E594E56346C71AB84280416D1A6E
:1020900040422D1A2B0200D5C9E66A07FF0801232A
:1020A0003A43E80864E71A000F00203AD740B846E0
:1020B000202B05D04022D31A994063460B439A4601
:1020C00057467B1E9F4143461F435CE680223C00EF
:1020D000120415431F2B26DC20222F00D21A0600E3
:1020E00090409740DE40421E9041DD403743074319
:1020F000491B6346DF1BBC45924152424E468D1A36
:102100007DE6002B00D1C1E64B469B1B002E00D183
:10211000D0E5382B36DD80252D04294200D1DDE0C5
:102120004E4600272FE51A002E00203AD640202BDD
:1021300005D04022D31A9D402F000743BB465F467F
:102140007B1E9F413743D4E7002A00D1D1E601240A
:1021500043460D00E3461C40B6E663461F1ABC45E5
:1021600092414D1B5242AD1A2B0200D55EE66A0722
:10217000FF08444601233A43E808F9E6471C17E5FF
:102180003B00EBE58022120415431F2B6CDC202260
:102190002F00D21A060090409740DE40421E904128
:1021A000DD4037430743491967446745924152422E
:1021B0004E465518ECE5C046FE070000FFFF7FFFC6
:1021C000FF070000002B00D1FCE6C7086B071F4388
:1021D0006346E8080B4300D11FE580231B03184228
:1021E00007D0CA081A4204D163461000DF08490725
:1021F0000F437B0FFF00FF085B071F430DE562469F
:102200000D00D708D2E5C7086B071F43E808002A6E
:1022100000D102E580231B031842EAD0CA081A4203
:10222000E7D163460124DF084346490710000F4306
:102230001C40DEE7604460459241691852428918AB
:1022400006000B0200D5F2E64A07F60801233243E6
:10225000C8088DE66346DF084B0744461F43C8089D
:10226000DBE44446130035E71A002E00203AD6403E
:10227000202B05D04022D31A9D402F000743BB4698
:102280005F467B1E9F4137438EE7202300271B1AA2
:10229000F5E40023002A00D192E567460D00FF080F
:1022A00084E53A001A4300D123E61D00BB460BE645
:1022B00017003300FF0879E5DB0852071A430809C5
:1022C000022355E663460124DA0843464F071743C5
:1022D000C8081C40A1E41E00471C69E467460D00C5
:1022E0004E46013764E40F4BFF081D406A076D023C
:1022F00001233A432D0B71E4130046E73300FF0836
:1023000054E567460D001E00013751E46A07FF08D7
:102310003A4300092CE6C0086A0702430023E80894
:1023200026E6C046FFFF7FFF10B5041E10D000F068
:1023300067F80E4B1B1A5B055B0D0A280FDC0B229E
:102340002100121AD14015300A038440120B01E01B
:10235000002300221B0513432000190010BD22009A
:102360000B38824012030024120BF3E71E04000016
:1023700070B542024300C40FFE201B0E591C550AC3
:1023800008420CD0E02189008C466D07120B634493
:102390001B051343E40723432800190070BD002BDD
:1023A00014D1002D1BD0280000F02AF80A281CDCCC
:1023B0000B232A001B1ADA40030015339D400E4BF5
:1023C00012031B1A5B05120B5B0DE1E7002D09D010
:1023D000130B802212031A436D07084BD8E7002322
:1023E0000022D5E70022054BD2E703002A000B3B71
:1023F0009A400025E3E7C04689030000FF0700007C
:102400001C2101231B04984201D3000C10391B0A24
:10241000984201D3000A08391B09984201D30009E8
:10242000043902A2105C40187047C046040302023F
:1024300001010101000000000000000070B5002251
:102440000C4B04000D0000F087F8002804D1200098
:10245000290000F011F870BD064B00222000290071
:10246000FFF72AFB00F008F880231B069C46604417
:10247000F1E7C0460000E0410B00020070B5164DC8
:102480000C0382B04900002000920193240B490DF7
:10249000DE0FA94204DD1148814203DD104BF01824
:1024A00002B070BD8020400320430E4C641A1F2CE4
:1024B00008DD0D4B5B1AD84003005842002EEFD1C7
:1024C0001800EDE7094B009A9C46030061448B40DD
:1024D000E2401343F1E7C046FE0300001D04000084
:1024E000FFFFFF7F3304000013040000EDFBFFFF3C
:1024F0008446100062468C461900634600E0C046E0
:102500001FB500F0E9F8002801D40021C8421FBD22
:1025100010B500F02BF84042013010BD10B500F0AE
:10252000DBF8002801DB002010BD012010BDC046F3
:1025300010B500F0D1F8002801DD002010BD012009
:1025400010BDC04610B500F057F8002801DC00208F
:1025500010BD012010BDC04610B500F04DF8002898
:1025600001DA002010BD012010BDC046F0B557466D
:10257000DE464E464546E0B50D000400E80F8346B2
:102580000903D80F090B82461A488C461F036900BD
:102590005E00490D3F0B760D81421AD0864211D064
:1025A0000120B1420FD1BC450DD1A2420BD1D34580
:1025B0001ED0002907D1614611430A00531E9A41DB
:1025C000100000E00120F0BCBB46B246A946A04680
:1025D000F0BD01208E42F6D1614639430F0017430A
:1025E0002743F0D15B465246981A431E9841EAE7CA
:1025F0000020E8E7FF070000F0B557464E46454685
:10260000DE46E0B50D000E034900490D8A46DF0F96
:10261000E90FBC4683B02F4F04008046019158005B
:1026200019039146360B090B400DBA451DD0B8422F
:102630000DD05746002F2AD13443002824D10A4315
:1026400036D0002C41D163465800013815E01143C3
:1026500038D15346002B01D12643F4D0019B63456A
:1026600007D1019B5800013807E026432AD1504585
:1026700021D00120019B5F42384303B0F0BCBB4630
:10268000B246A946A046F0BD002CDCD0E6E7002803
:10269000EFD0019B6345ECD18245EADCE1DB8E4261
:1026A000E7D8DED1C845E4D80020C845E5D2D8E750
:1026B000002CE2D0DDE7114304D1019B6345D8D162
:1026C0000020DAE702204042D7E7019B6345E6D0CD
:1026D000CFE7C046FF070000F0B557464E464546D7
:1026E000DE46E0B50D000E034900490D8A46DF0FB6
:1026F000E90FBC4683B02E4F04008046019158007C
:1027000019039146360B090B400DBA451ED0B8424D
:102710000DD05746002F27D13443002833D10A4328
:1027200034D0002C40D163465800013815E01143E5
:1027300012D15346002B01D12643F4D0019B6345AF
:102740001DD00120019B5F42384306E0264303D1A0
:102750005045F6D111431CD0022003B0F0BCBB465B
:10276000B246A946A046F0BD0028EAD0019B6345C9
:10277000E7D18245E5DC02DB8E42E2D80ED0019B38
:1027800058000138E9E7002CCDD0D7E7002CE4D081
:10279000D7E7019B00206345DFD0D2E7C845D0D8FA
:1027A0000020C845D9D2EAE7019B6345E4D0C8E7D9
:1027B000FF07000003B47146490840004900095E64
:1027C00049008E4403BC704703460B437FD400226C
:1027D00043088B4274D303098B425FD3030A8B42B5
:1027E00044D3030B8B4228D3030C8B420DD3FF221F
:1027F000090212BA030C8B4202D31212090265D0ED
:10280000030B8B4219D300E0090AC30B8B4201D39F
:10281000CB03C01A5241830B8B4201D38B03C01AE6
:102820005241430B8B4201D34B03C01A5241030B5D
:102830008B4201D30B03C01A5241C30A8B4201D30E
:10284000CB02C01A5241830A8B4201D38B02C01AB9
:102850005241430A8B4201D34B02C01A5241030A30
:102860008B4201D30B02C01A5241CDD2C3098B4215
:1028700001D3CB01C01A524183098B4201D38B0192
:10288000C01A524143098B4201D34B01C01A524135
:1028900003098B4201D30B01C01A5241C3088B427A
:1028A00001D3CB00C01A524183088B4201D38B0065
:1028B000C01A524143088B4201D34B00C01A524107
:1028C000411A00D201465241104670475DE0CA0FDE
:1028D00000D04942031000D34042534000229C469E
:1028E00003098B422DD3030A8B4212D3FC228901A8
:1028F00012BA030A8B420CD3890192118B4208D37E
:10290000890192118B4204D389013AD0921100E0DF
:102910008909C3098B4201D3CB01C01A52418309F3
:102920008B4201D38B01C01A524143098B4201D320
:102930004B01C01A524103098B4201D30B01C01A4B
:102940005241C3088B4201D3CB00C01A52418308C5
:102950008B4201D38B00C01A5241D9D243088B421B
:1029600001D34B00C01A5241411A00D201466346BE
:1029700052415B10104601D34042002B00D5494222
:10298000704763465B1000D3404201B50020FDF75D
:1029900021FC02BD0029F8D016E7704700000000B6
:1029A00010B500F0DDFA02F0C7F801F01FF9FEE7FC
:1029B00010B502F0B9FC092303600120404210BDAC
:1029C00080239B0100204B607047C0460120704768
:1029D00010B502F0A9FC1D2303600120404210BD88
:1029E00010B502F0A1FC052303600120404210BD98
:1029F00010007047F8B51A4A1A4B1B4F1B4E1C4D5E
:102A00001C4C1D481D49FA50F250EA50E250C25089
:102A1000CA501B49CA501B49CA501B49CA501B49BE
:102A2000CA508021C905CA501949CA50194A1349C8
:102A3000043BFA50F250EA50E250C250CA501049DA
:102A40001020CA500F49CA500F49CA500F49CA50E6
:102A50008021C905CA500E49CA5002F0D3F8F8BD0A
:102A6000030000B10408000000000A4000200A40F2
:102A700000A086400080864000400840002086403C
:102A80000000864000000F4000801040008046405B
:102A9000000044400100002686209C2230B580249E
:102AA000254B26499850264AA4028C50A024185140
:102AB0008024E4028C50B824185180208003885070
:102AC0008820043418518024E4038C5084241C5042
:102AD0008020400188508C2001341C5080258020AB
:102AE000ED00800188505C658D509C658024240138
:102AF0008C50144959605C685C6099609968996071
:102B000080215C6889040C435C609C682143996067
:102B10008221D9600C49902499618321D96219518D
:102B20000A4C5C62D961023999679521084B4901C9
:102B30005850985030BDC0460080424000000A40C6
:102B4000D012000083000C00820004008300040007
:102B500000200A40002103200C4B0D4A99500D49DA
:102B60000A6882430A600C4A023899588143995096
:102B700099580A48014099503021094B1A688A43F4
:102B80001A601A6821398A431A60704700F00A40B7
:102B90000813000000010B4008110000FFFEFFFFBA
:102BA00004010B4030B51D4983B01D4802F06EF89A
:102BB0001C491B481A4D02F0E5F81B4A1B49AB584B
:102BC00028000B40AB50002300220093002102F0AC
:102BD000CBF828000022002102F0B6F8FA210124E7
:102BE00028000022890002F0A5F800232800002216
:102BF0000021009402F0B8F828000122002102F020
:102C0000A3F8FA2101222800890002F093F8032298
:102C1000074BEC50083BEA5003B030BD4060000069
:102C200000A0864038600000041800007F00FFFF0D
:102C30000811000030B51D4983B01D4802F026F888
:102C40001C491B481A4D02F09DF81B4A1B49AB5802
:102C500028000B40AB50002300220093002102F01B
:102C600083F828000022002102F06EF8FA210124E6
:102C700028000022890002F05DF8002328000022CD
:102C80000021009402F070F828000122002102F0D7
:102C90005BF8FA2101222800890002F04BF8032298
:102CA000074BEC50083BEA5003B030BD34600000E5
:102CB000008086402C600000041800007F00FFFFA9
:102CC0000811000030B51D4983B01D4801F0DEFF3A
:102CD0001C491B481A4D02F055F81B4A1B49AB58BA
:102CE00028000B40AB50002300220093002102F08B
:102CF0003BF828000022002102F026F8FA210124E6
:102D000028000022890002F015F800232800002284
:102D10000021009402F028F828000122002102F08E
:102D200013F8FA2101222800890002F003F8032297
:102D3000074BEC50083BEA5003B030BD2860000060
:102D40000040084020600000041800007F00FFFFE2
:102D50000811000030B51D4983B01D4801F096FFF1
:102D60001C491B481A4D02F00DF81B4A1B49AB5871
:102D700028000B40AB50002300220093002101F0FB
:102D8000F3FF28000022002101F0DEFFFA210124D8
:102D900028000022890001F0CDFF00232800002236
:102DA0000021009401F0E0FF28000122002101F041
:102DB000CBFFFA2101222800890001F0BBFF03228A
:102DC000074BEC50083BEA5003B030BD1C600000DC
:102DD0000020864014600000041800007F00FFFF00
:102DE0000811000010B50649064801F04FFF0649DA
:102DF000044801F059FF0122044B0249CA5010BD9A
:102E00001060000000008640FC5F00000811000018
:102E100010B50949094801F0FBFE9023C02207487C
:102E20005B01C158D2000A43C2508022C1585200EF
:102E30000A43C25010BDC046F85F000000000F40BA
:102E400070B51649164802F089F81649144802F080
:102E500061F88822124C5201A358134925000B40F7
:102E6000A350D0231149605843401B041B0C43401E
:102E7000635015213F230E48245861400B40012127
:102E800063402B500B482B582C580B4063400B4091
:102E900063402B50AB580B43AB5070BDF45F000048
:102EA00000801040E85F0000FF7FFEFF101100006F
:102EB000141100000411000070B51049104801F011
:102EC000DBFE10490E4801F0B7FE0D4C0E4A012101
:102ED000A058250003004B409B059B0D4340A35089
:102EE00012223F2309482458624013406340084A95
:102EF0002B50AB580B43AB5070BDC046D85F0000A1
:102F000000804640DC5F0000081100000C1100004A
:102F100004110000802010B50849C00501F052FEE0
:102F20008C2380200022C0055B01C2508822012131
:102F3000520183580B43835010BDC046D05F000040
:102F40007047C04688210022024B49015A5002496D
:102F50005A50704700004440041100007047C046BA
:102F600010B5FFF747FDFFF797FDFFF7F3FDFFF7FC
:102F700019FEFFF75FFEFFF7A5FEFFF7EBFEFFF779
:102F800031FFFFF745FFFFF75BFFFFF795FFFFF707
:102F9000C1FFFFF7D5FFFFF7D5FFFFF7DFFF0023E6
:102FA0009C21064A5354064A5354064A1C31535432
:102FB000054A5354054A9439535410BDA8022020A1
:102FC000080220204C0120209000202068002020B2
:102FD000FEE7C0461548164B10B5984207D2013B94
:102FE0001A1A920801321349920002F0CAF91248E3
:102FF000124B984207D2013B1A1A9208013210492B
:10300000920002F0BEF90F480F4B984207D2013BE5
:103010001A1A920801320021920002F0C5F802F05B
:1030200089F9FFF7BDFCFFF7D3FF10BD000020209A
:1030300068002020C0610000000020200000202047
:10304000105F000068002020501A20207047C04602
:103050000300083301224360C3600361002352422E
:10306000826003607047C046002303617047C0461A
:10307000030030B50D6808336A1C0DD01C005B6876
:103080001A68AA42FAD94B60996003688C600133D0
:1030900061600861036030BD04696368F3E7C0469E
:1030A0000369416882688A6051605968814205D02D
:1030B0000022026118680138186070475A60F7E70B
:1030C00070B5050001F0A6FB4523EC5C64B2002C52
:1030D00016DD2E00243604E0013CE2B264B2002A80
:1030E0000ED06B6A002B0BD0300000F0C3FE00281E
:1030F000F2D0013C00F07AFFE2B264B2002AF0D1D3
:103100004523FF22EA5401F091FB01F083FB4423A5
:10311000EC5C64B2002C16DD2E00103604E0013C9D
:10312000E2B264B2002A0ED02B69002B0BD0300023
:1031300000F0A0FE0028F2D0013C00F057FFE2B200
:1031400064B2002AF0D14423FF22EA5401F06EFB5E
:1031500070BDC04670B504000D00002834D0C36BAC
:10316000002B2FD0016C1A0C080C002A1DD100284E
:103170002CD101F04FFB216CE36B22684B43D0183C
:103180005B1A6260D218A060E260FF234422002034
:10319000A063A3540132A354002D1AD12369002B3C
:1031A00020D101F043FB012070BD00280AD1081C8A
:1031B0009BB289B2594380B293B24343090C5B1866
:1031C0001B0CD6D072B6FEE772B6FEE7021C181CC6
:1031D000EEE720001030FFF73BFF20002430FFF720
:1031E00037FFDEE72000103000F044FE0028D8D082
:1031F00001F004FBD5E7C04670B582B01C006B46F9
:103200001D7E002C0ED000280AD0002A0CD00029E8
:1032100006D050230193019B502B1DD072B6FEE7C0
:1032200072B6FEE772B6FEE70029F9D1502301938A
:10323000019B502BF2D12200019B46230126E6542C
:10324000E0632164200001212260FFF783FF4C230B
:103250002000E55402B070BD019BEEE7F0B5CE460C
:10326000474680B585B004000D000192002800D1CA
:1032700074E000294AD000F0E1FE00284BD001F0B4
:10328000C9FAA36B9946002B6AD1019B002B35D05C
:1032900002A800F069FE002344279846452601F065
:1032A000C5FA00F0F3FC01F0B5FAE35D5BB201335F
:1032B00001D14346E355A35D5BB2013301D14346DF
:1032C000A35501F0B3FA01A902A800F059FE0028A5
:1032D00026D101F09FFAA36B002B2ED001F0A6FAA5
:1032E0002000FFF7EDFE00F0D9FC01F093FAA36B8C
:1032F0009946002B34D1019B002BD0D101F096FAD6
:10330000002005B0C0BCB946B046F0BD036C002B30
:10331000B1D072B6FEE7019B002BB0D072B6FEE7CB
:103320002000FFF7CDFE00F0B9FC01F073FAA36BAB
:10333000002BE3D001F07AFAD7E701F077FA20000A
:103340000199243000F060FD2000FFF7B9FE00F085
:10335000A5FC0028C9D101F051FAC6E772B6FEE714
:10336000226C002A0AD0E168A3688918E1609942BA
:1033700001D32168E160280002F003F84B46013BCD
:10338000A3632369002B03D101F050FA0120B8E7B1
:103390002000103000F06EFD0028F5D001F02EFA6C
:1033A000F2E7C04670B5040016000D0001F032FAD5
:1033B0004422A35C5BB2013301D10023A354452214
:1033C000A35C5BB2013301D10023A35401F02EFAB8
:1033D000A36B002B03D02000FFF772FE70BD20000E
:1033E00032002900243000F021FDF4E7F0B5C64694
:1033F00000B5040001F00EFA374A384E1368013365
:1034000013603368002B35D0354BE26A98461B6851
:10341000002B29D0334D34490B6801330B606364B2
:10342000324B1968914200D21A6093009B189B009E
:10343000E9184A68A260906884466746E060201DEB
:1034400078609060EA5861610132EA5001F0EEF96B
:1034500043461B68002B04D03368DA6AE36A9A4259
:1034600011D380BCB846F0BD3368DB6A9342D1D833
:103470003460CFE734601368012B07D0184BE26A41
:103480009846184DC7E701F0B9F9EAE7C823154D8A
:1034900098462F00A84438001437FFF7D9FDB845E7
:1034A000F9D1134B98461800FFF7D2FD114F3800A1
:1034B000FFF7CEFD1048FFF7CBFD1048FFF7C8FD22
:1034C0000F48FFF7C5FD42460E4B1A600E4BE26AED
:1034D0001F60034B98469EE770032020AC04202019
:1034E00064032020E40320205403202068032020CC
:1034F000D0032020BC032020A00320208C03202008
:1035000074032020B8032020B4032020F8B54746D8
:10351000CE460400254B80B51E68254B254D1F68FF
:10352000254B89461B68286898460430FFF7B8FD8C
:10353000631C18D02B6834195C60A64208D929682E
:1035400040460431FFF794FDC0BCB946B046F8BD13
:10355000296838000431FFF78BFD184B1A68A24226
:10356000F2D91C60F0E74B46002B0CD12A68731E81
:1035700053609E42E3D8296838000431FFF778FD94
:103580000E4B1B68E0E70E4B29685A688A6090680A
:103590002968C86029680431416029680431916054
:1035A0002A6853611A6801321A60CDE76C03202043
:1035B000B8032020AC042020B40320205003202096
:1035C00074032020F8B5CE46474680B50A9D960084
:1035D00007000C003200A521286B984601F0E4FD9D
:1035E0002B6B9946002C0CD0290000223431A35CAF
:1035F0008B54002B02D00132102AF8D14323002231
:10360000EA54089B092B01D972B6FEE7089B281DD6
:10361000EB62EB64FFF728FD28001830FFF724FD6C
:103620000A23089A28009B1A90220021AB615200BD
:103630002D616D62603001F0B7FD164B01206B66A5
:103640001A00D033EB662B0000216832F833AA66EB
:10365000186059608023104A5B00EA500F4A043317
:10366000EA500F4A0433EA50043E0B223000043380
:10367000EA52063BFF3B484498434246390001F07A
:1036800003F9099B2860002B00D01D60C0BCB9461F
:10369000B046F8BDFC1820200E33CDAB34126DE6D9
:1036A000ECDE0500F0B5C6461C4D00B52B68002BBE
:1036B0002AD01B4B862798461A4EFF3701F0AAF8EE
:1036C0004346DB68DC68201DFFF7EAFC3368013BFA
:1036D00033602B68013B2B6001F0A8F820006030BC
:1036E00001F07CFDE35D002B05D0012B0FD0022BF8
:1036F00007D072B6FEE7206B00F044FF200000F018
:1037000041FF2B68002BD9D180BCB846F0BD20000A
:1037100000F038FF2B68002BD0D1F5E7880320207C
:103720008C03202070032020F0B54E46DE4657461D
:103730004546524BE0B51E6883B001361E60002E30
:1037400000D178E04E4900220B6894469E4262D335
:103750004C4B98461B681B68002B59D00023994698
:10376000494B4A4D9A464A4B01919B464346B046C7
:103770001E0039E0494659611168013911609A6AA1
:10378000002A0ED0DC69196AA160DC694C6019005E
:10379000546818318C424BD04946996211680139FE
:1037A00011605246D96A1268914201D9524611609D
:1037B0008A0052189200AC18616899608F68DF60C7
:1037C00078608860A9585C610131A9505A46116837
:1037D000DA6ACB6A93429B4162465B421A43336882
:1037E00094461B68002B12D03368DB68DB685A688C
:1037F000904539D39868D9685A698160986848605B
:103800005168181D8142B5D1D9685160B2E701995C
:1038100001235B420B601F4B1868431E98416346AF
:10382000184303B0F0BCBB46B246A946A046F0BD63
:10383000196A5160B0E7134B1A681268002A01D068
:1038400072B6FEE7144A19681068186011601349CF
:103850000A6801320A601A681268002A07D1012337
:1038600007495B420B606EE701990A60D3E71B686A
:103870000349DB681B680B6065E7C0466C032020CA
:1038800050032020B803202068032020E4032020D8
:10389000AC0420205C032020B40320205803202007
:1038A000F0B54546DE4657464E46E0B5514D83B02D
:1038B0002B68013B2B602B68002B58D14E4B1B68AB
:1038C000002B54D04D4F3B68002B00D18FE04C4B68
:1038D0004C4C9C464C4B019599464C4B9A460023C8
:1038E000984601339B4632E041469962116801399E
:1038F00011609868D9685A69816098684860516811
:10390000181D81423ED01168013911606246D96AA2
:103910001268914201D9624611608A0052189200E1
:10392000A518696899608E68DE6070608860A1582B
:103930005D610131A1504A461168DA6ACB6A9A4248
:1039400002D953465A461A603B68002B1DD0FB68CB
:10395000DB68D869196A9A6A8160D8694860190079
:10396000506818318842BFD1196A5160BCE7002401
:1039700000F05CFF200003B0F0BCBB46B246A94695
:10398000A046F0BDD9685160BDE7214B019D1A6882
:103990001268002A27D01B68DB681A681D4B1A6062
:1039A0001D4E3468002C14D0012708E0FFF7BCFE40
:1039B000002801D053461F60013C002C08D02B6822
:1039C000002BF3D03368013C01333360002CF6D177
:1039D000346053461B68002BC9D00B4B01241B6875
:1039E00000F00CFFC4E70B4B013A1A60D8E7074B15
:1039F0009A46D5E74803202070032020A00320200A
:103A000068032020E4032020AC0420205C03202055
:103A1000B80320205003202060032020F8B5254B58
:103A20004746CE469946244B80B59846234C244DB4
:103A3000244F254EFFF736FE2368002B21D12B683B
:103A4000DB6A002BF6D13B68012BF3D84B4642468C
:103A50001B6812689B1A012BECD933680133336061
:103A60004B461A6843461B689A4220D32368002BB2
:103A70000CD02B6800F0CEFE3368002B03D172B659
:103A8000FEE72B68D6E7FFF70BFFD3E72B68DB6A6F
:103A9000002BEFD13B68012BECD84B46186843460E
:103AA0001B68C01A0128E5D900F0F2FDE2E772B602
:103AB000FEE7C046500320206C032020680320202E
:103AC000AC042020E403202048032020F0B5C646A3
:103AD000002400B586B01D000D9B80460F00160027
:103AE0000494002B0CD00E9B002B07D0C4235B004A
:103AF0000593059A9A4205D072B6FEE772B6FEE7C4
:103B000072B6FEE700210E98059B01F04DFB0E9B5F
:103B10000D9A0E991A6386230222FF33CA5404AB0E
:103B200001930C9B320040460291009339002B0018
:103B3000FFF748FD0E98FFF759FC049806B080BCCB
:103B4000B846F0BDF0B5CE46474680B5070085B013
:103B5000900088461600994600F052FC051E22D0BF
:103B6000C420400000F04CFC041E19D0C4220021E7
:103B7000520001F019FB0D9B256301930C9B320051
:103B800041463800009302944B46FFF71BFD20008E
:103B9000FFF72CFC012005B0C0BCB946B046F0BD13
:103BA000280000F0EFFC01204042F4E710B50028A7
:103BB0000CD00D4C2368013323602368012B08D0FF
:103BC00072B6FEE7FFF76CFE002801D100F016FE8A
:103BD00010BD0021FFF79AFC00F01CFE2368002BAB
:103BE000F0D172B6FEE7C0464803202010B500248D
:103BF0008CB01022002108A801F0D6FA1A4B07AAAF
:103C000006A905A808930594069400F035FF059BC6
:103C1000079A0293069B154801930094002308A974
:103C2000FFF754FF124B1860002803D1114B1B689B
:103C30000CB010BD00F0B6FB012803D00130F5D167
:103C400072B6FEE772B60C4B0C4A1B686033136009
:103C500001220B4B52421A600A4B18600A4B1C603F
:103C600000F062FEE2E7C04649444C451D3A0000C0
:103C70004C03202044600000AC04202014002020CD
:103C800050032020640320206C032020024A136884
:103C9000013313607047C0464803202010B500F080
:103CA000B9FD044B1B68002B01D172B6FEE7FFF78C
:103CB000F7FD10BD48032020014B18687047C0462F
:103CC0006C03202070B5124D124A2B6811681B1826
:103CD0000400994201D272B6FEE712689A4203D0FC
:103CE0002B681B192B6070BD0B4B1B68002B01D17F
:103CF00072B6FEE7002801D172B6FEE700F08AFD39
:103D0000064A013C13680133136000F08FFDE7E7BA
:103D10006C03202050032020480320206003202033
:103D2000064B10B51B68002B02D1FFF7FDFC10BD40
:103D3000034A0020136801331360F8E7480320208A
:103D400060032020294B70B51B68002B03D0012293
:103D5000274B1A6070BD264A264C136021682268E2
:103D6000236812681B6B9A4204D90B6B22491A68AC
:103D70008A4230D021682068343100F07BFE1F4D2C
:103D80001F482A6891008B189B00C658002E0CD142
:103D9000143BC31804E01968143B013A002903D10D
:103DA000002AF8D172B6FEE79100891889004618FA
:103DB000736808315B6840187360834208D0DB6821
:103DC00023602A60236823680E4A60331360C1E7CA
:103DD000F3687360F3E759689142CBD19A688A42DD
:103DE000C8D1DB689342C5D1C9E7C046480320204B
:103DF0005C032020AC042020A5A5A5A568032020F5
:103E0000E40320201400202010B50C00002809D065
:103E1000054B19681831FFF72BF901212000FFF736
:103E200075FB10BD72B6FEE7AC042020030070B530
:103E300008001100002B18D00D4A5C681568EC6171
:103E4000A66815682E6215681835756015681268C1
:103E50001835A56093621A6801321A60002901D0F2
:103E600001204042FFF752FB70BD72B6FEE7C0462C
:103E7000AC042020C36870B5DB68002B58D0D8692B
:103E8000196A9A6A8160D8694860180051681830C8
:103E900081424AD0002199621168013911602A4A91
:103EA0001268002A16D0294A5168D9618C681C62B0
:103EB0006060886011689A6201311160244A0020B4
:103EC0001168DA6ACB6A9A4203D90122214B013088
:103ED0001A6070BD9868D9685A69816098681C1D1D
:103EE00048605168A1422BD01168013911601A4A0B
:103EF000D96A1068814200D911608A0017485218A7
:103F000092008518696899608E68DE6074608C60C4
:103F100081585D6101318150114A11680968002999
:103F200008D1104A01391160C8E7196A5160B1E738
:103F300072B6FEE71268D26811680A4A1160BDE7DE
:103F4000D9685160D0E7C04648032020A003202054
:103F5000AC0420205C03202068032020E403202000
:103F6000B803202050032020034B1B680360034B41
:103F70001B6843607047C046580320206C03202014
:103F8000F0B5C64604000D0000B500281CD000297D
:103F900018D000F03FFC134A2B681168581C1FD042
:103FA000114E60683768B846276847450ED088428A
:103FB0000CD8002301242B6000F038FC200080BCCA
:103FC000B846F0BD72B6FEE772B6FEE70F1ABB4206
:103FD000EFD95B1A1B182B6033682360136863608A
:103FE0000024E9E76C032020580320200122014B24
:103FF0001A6070475C0320200B4B00201B68002BCD
:1040000003D10A4B1B68002B00D07047084B1B687C
:10401000002BFAD1074B084A1B681068013BC01AF5
:10402000434258410130F0E7A00320205C032020E8
:10403000600320207003202074032020054B012002
:104040001B68002B04D0044B1868434258414000C1
:104050007047C0466403202048032020F0B583B099
:1040600000F0D8FB0E4C2568002D03D000F0DEFBDD
:1040700003B0F0BD0B4F3800FEF7EAFF0A4E3000E8
:10408000FEF7E6FF094B0C211F60094B0A201E605A
:10409000084A094B0095FFF7AFF82060E6E7C046F5
:1040A00080052020A00520208C05202088052020C8
:1040B0008405202000052020B0042020F8B5CE463D
:1040C00047461C4B80B599461B680500DB680F000E
:1040D000DC68231D18009846FEF7E2FF2822A35C47
:1040E000590710D401218B43A3542000236A984719
:1040F000C0BCB946B046F8BD7D1BAB4213D820000A
:10410000236A98473500A3692461EE186660B742B8
:10411000F2D2AF4201D2B542F1D94B4641461868BE
:10412000FEF7A6FFE1E7044B41461868FEF7A0FF43
:10413000DBE7C0468805202084052020F0B55746DF
:104140004546DE464E46924BE0B59846914B87B0C9
:104150009B46914B914E9A46914F03AD33681A6836
:104160009146002A00D0C1E0FFF790FDFFF7A4FDC3
:1041700043461B680400834260D8434618605B4690
:104180001B681A6853425A414B463868191BFFF79F
:1041900009F9FFF783FD002800D1EDE00C22002192
:1041A000280001F001F828239946002229003868E8
:1041B000FFF754F80028D1D02B68002BF5DBAC6852
:1041C000002CF2D06369002B02D0201DFEF768FF9F
:1041D000FFF772FD43461B680200984263D34346D3
:1041E0001A602B68092BE0D851469B00CB589F469C
:1041F0004B46E35C68689C46012361460B43494695
:104200006354A169246143186360934261D8101A12
:10421000814200D9AAE0604640077DD4012362466E
:104220009A4313002822A3542000236A9847BCE72E
:104230000121DB6849421868FFF740FF33681A68BC
:10424000002AF5D15A46126832605A461360434636
:104250001C60FFF723FDA1E74B460121E35C0B4304
:10426000494663546B68A361002B00D18EE09B1814
:1042700063602461211D934234D85B461868FEF7C1
:10428000F7FE92E74B460122E35C93434A46A35470
:104290008BE74B460222E35C1A4239D0012293435A
:1042A0004A46A35481E73368196800290BD000906F
:1042B0000121DB6849421868FFF700FF33681A687C
:1042C000002AF5D1009A59460968316059460B60B9
:1042D00085E7904201D998429DD93068211DFEF7AB
:1042E000C7FE62E73068FEF7C3FE5EE7DB681B6867
:1042F0009946FFF7CBFCFFF7DFFC43461B68040041
:1043000083429BD843461860814538D900223BE759
:10431000200000F037F948E740460096B846019083
:10432000170007E0FB1A8B4216D3236A2000984738
:104330003300A1695E1866602461B742F2D29F42E1
:1043400001D2B342F1D9009E019B3068211D47463E
:104350009846FEF78DFE67E7019B474698465B4609
:10436000211D1868009EFEF783FE5DE75B46211D58
:104370001868FEF77DFE18E700F040FA0EE7FFF739
:104380008DFC21004846FFF799FE07E772B6FEE76D
:104390007805202084052020486000008805202022
:1043A0008005202000B589B0FFF758FE104B1B6830
:1043B000002B1AD0002307AA06A905A80593069387
:1043C00000F066FB059B079A0293069B094901933F
:1043D0000923094800930023FFF778FB074B186077
:1043E000002802D0012009B000BD72B6FEE7C04629
:1043F00080052020706000003D4100007C052020E9
:10440000F8B5CE464746431E80B50A3328D8072361
:1044100004001A000834224023422FD1FFF736FC53
:10442000504D27002B68002B43D0002C1EDB4E4F35
:104430003B689C46A34219D34C494D480B688342C4
:1044400033D34C4A8618B3422FD888465968A142C4
:104450004CD21A68002A49D0824221D272B6FEE7B5
:10446000FFF714FC3F4D2B68002B20D0FFF716FC04
:1044700000252800C0BCB946B046F8BD1300093B72
:10448000A342EDD31030841AFFF700FC354D27000E
:104490002B68002B0DD0002FE8DB002CC7D1E5E7FF
:1044A000B242DBD898461300D0E772B6FEE7002789
:1044B000002407202E4B1A001900184202D0DA1DE2
:1044C000824311000020294E706031602A4EB446AC
:1044D00007266344B34318609A1A58602B600B6038
:1044E000264B4A601A60204B1A60D4E72A689A4229
:1044F000BCD042461568083585420BD31D4A91460B
:104500004844854206D8424618681060A14203D24A
:1045100072B6FEE772B6FEE70E1B102E09D91A1905
:10452000510701D072B6FEE74146566010600A603E
:10453000210062461148521A04683A60A24200D231
:104540000260802212060A435A6000221A600C4A56
:10455000136801331360FFF7A1FB6B0700D188E7F5
:1045600072B6FEE7C4052020C0052020C805202023
:10457000D0052020FF0B0000F80B0000BC05202018
:10458000B805202070B500283DD00400304D083C0F
:104590002600AC4208D32F4BEB189C4204D863682A
:1045A000002B31DB72B6FEE772B6FEE75A002A49ED
:1045B000520862600B422ED1FFF768FB274A616800
:1045C000136827485B18136003001A001B689C429D
:1045D000FBD8824206D0AA421BD31E4884466544BB
:1045E000AA4216D850681518AC4219D060188342F8
:1045F00026D02360B24200D016601A4A13680133F5
:104600001360FFF74BFB70BD2268002ACED072B654
:10461000FEE772B6FEE70021083A00F0C5FDCBE7E1
:104620000918501851608342E7D10F4816000068FE
:1046300098420AD058681B68411871603360D9E706
:10464000094800688342F5D1D3E71360D5E7C04637
:10465000D0052020FF0B0000F8FFFF7FC0052020C1
:10466000C8052020B4052020C4052020002382B0E6
:104670000193064B1B68013301D072B6FEE772B698
:10468000019B002BFCD002B07047C04600002020E8
:10469000F8B5404B05001E6872B6BFF34F8FBFF3ED
:1046A0006F8FFFF7A9FC002859D006223A4B3B4CEC
:1046B0001A603B4B19682368002900D119003200A9
:1046C000AE425AD8501E4343364D5B182968490103
:1046D00004D580218904296021685B1A324E316833
:1046E000994200D25B1A0025012730490B602C4902
:1046F0000D60294D296839432960002A04D0BFF391
:104700004F8F30BFBFF36F8F62B6BFF34F8FBFF3D2
:104710006F8F72B6BFF34F8FBFF36F8F06251E49A1
:104720000D6009682568C9031BD46A431C4B290026
:104730001E681700901BFBF7C3FC431C6B43F61B62
:1047400099191A4B19600022154B1A60124B073247
:104750001A602368154A013B1360FFF7B3FA62B68B
:10476000F8BD0F4A12685219013AD31A32689A42B8
:104770000CD36B1E0D4A1360E5E72A00501E43431D
:10478000084D5B1829684901A8D5A2E7AB42F1D9C9
:10479000EFE7C046D411202010E000E0D81120201F
:1047A00018E000E004ED00E0D011202014E000E06B
:1047B000FA220B4BD2011A6083220021094B92008E
:1047C0001A60094BAF3AFF3A1A60084B5A3A1A601E
:1047D000074A1160074A0849116007221A607047AA
:1047E000D8112020D4112020D011202010E000E08A
:1047F00018E000E014E000E0FF7C00008022044BA1
:1048000052051A60BFF34F8FBFF36F8F7047C046DA
:1048100004ED00E072B6044A136801331360BFF37D
:104820004F8FBFF36F8F704700002020064B1A6830
:10483000002A01D172B6FEE71A68013A1A601B68B5
:10484000002B00D162B670470000202010B500F0A8
:10485000CFF80400FFF764FA002803D08022034B4E
:1048600052051A60200000F0C7F810BD04ED00E00A
:1048700010B58369023B1B78642B01D072B6FEE74A
:1048800000F096F810BDC04610B58024031F6404E4
:104890001C60043B19601749043B19601649043B2E
:1048A00019601649043B19601549043B1960154904
:1048B000043B1960043B1A60134A043B1A60134A14
:1048C000043B1A60124A043B1A60124A043B1A6005
:1048D000114A043B1A60114A043B1A60104A043B17
:1048E0001A60104A043B1A60032344385B42036099
:1048F00010BDC0466D4600001212121203030303DE
:104900000202020201010101111111111010101017
:10491000090909090808080807070707060606061F
:104920000505050504040404194B30B51A68194B34
:10493000D16A83B0994201D072B6FEE7164B926BF2
:104940009A4201D072B6FEE7FF22144B1204196896
:1049500000240A431A60FF22196812060A431A60EB
:104960000F4B1C60FFF724FF0E4D2C6000F038F851
:10497000FFF7E8F901942B68013301D072B6FEE726
:1049800072B6019B002BFCD0002003B030BDC046A6
:1049900008ED00E0514A0000014A000020ED00E06F
:1049A0001CED00E0000020200000000000000000DE
:1049B000074A1168086804C8022181F3148820306E
:1049C00080F30988BFF36F8F1047C046C046C046CA
:1049D000AC042020000000000000000000000000E7
:1049E00062B6BFF34F8FBFF36F8F64DFC046C04620
:1049F000EFF3108072B6704780F310887047C0469E
:104A0000EFF309800E4A1168243808607346F8C035
:104A100044464D4656465F46F0C072B6FFF792F9DF
:104A200062B6074A116808681430F0C8A046A94663
:104A3000B246BB4680F309882438F8C81847C046F8
:104A4000AC04202000000000000000000000000076
:104A500004207146084203D0EFF30980044B184745
:104A6000EFF30880024B1847C046C046C046C04618
:104A700071480000FEE7C046034B0360034B0B6028
:104A8000802313607047C0466817202068152020D7
:104A9000034B0360034B0B60802313607047C046D9
:104AA000E0132020DC1120200EB400B582B003A951
:104AB00001C9019100F06CFB02B008BC03B01847BB
:104AC000F0B5C64600B5144E82B0144B320000203B
:104AD00013490096FFF7E8FF124B134C9846134D0D
:104AE000134F00F061F8206000F05EF82168FBF7DA
:104AF00005FF10492860FBF795FB002807D04346C7
:104B000032003900002001960095FFF7CDFF052007
:104B1000FFF74CF8E5E7C0467C60000078600000D5
:104B200080600000AC600000F4182020F018202005
:104B3000B06000000000A04000B585B072B600F083
:104B40001DF80023039303AB80220193022308493D
:104B5000009308480023D200FEF7F4FF012805D196
:104B6000039A054B1A6062B605B000BD0022F8E753
:104B7000F0600000C14A0000F818202010B5202085
:104B800000F004F800F01CF810BDC046002808D062
:104B90004201121A93019B1ADB0002491B189B0168
:104BA0000B6070470400202010B5FFF747FA01287A
:104BB00001D1002010BDFFF77FF8FCF751F9F9E7AC
:104BC0007047C046A9230C4A30B50D7884581B069F
:104BD0002B430A4D63402B40634083508822E025DD
:104BE000520184584B68ED0463402B40634083506E
:104BF0004A78034BC25030BD08080000030000FF94
:104C000010110000831E043BC046FCD27047C04612
:104C10000C2330B5074C0A7805596A4013406B40A5
:104C200003510723043C05594A786A4013406B40FE
:104C3000035130BD04100000882230B54D880B8927
:104C400052012B438D7984582B43094D63402B40EF
:104C500063408350CD798B8809782B430B43BA216D
:104C6000044A4900845863400B406340835030BD80
:104C70007F330000041100000A78034BC2504A78C9
:104C8000043BC2507047C046041000000A78044B31
:104C9000C2504A78083BC2508A78024BC2507047D3
:104CA000081000000C1100001A4B4A6830B5C250C1
:104CB0000B78222B08D8184A9B00D3589F46174AD6
:104CC000174C8358234083500A69164B164DC25027
:104CD000164ACB68845863402B4063400F4C835086
:104CE0000359134A134003510B780A7A05591A43A2
:104CF0003F236A4013406B40035130BD8023C025E1
:104D0000064A9B058458AD0563402B4063408350A1
:104D1000DAE7C04608180000FC6000000418000034
:104D2000FFFFFFCF10180000777702003018000057
:104D30007F00FFFF034B92009C4660448018016097
:104D40007047C04610180000064B92009C46604415
:104D50008218E02013684003594001405940116017
:104D60007047C0463018000030B5054D03ACAC4666
:104D700024786044A4001A4300190A43026030BD3D
:104D800050180000F0B54B79002B2CD00B79002B7C
:104D900000D18FE0202B00D087E0494C494B0659C9
:104DA0001A007240484D2A4072400251474A8458C6
:104DB00063402B4063408350454B464CC2582240D1
:104DC000C250454A83582340835000238F24434ACE
:104DD0008350434A8350434A8358A3438350424AF3
:104DE0008358A34383500B790A688C79002B53D0E6
:104DF000202B13D03D4952084250A02292001100AE
:104E00003B4D47597940304E314079404151394905
:104E100045586A4032406A4042501BE03349013AEB
:104E20004250284A324D11004759274E79403140AF
:104E3000794041512F4945586A4032406A404250BA
:104E40008022C0262C4992054558B6056A4032405A
:104E50006A404250294A1F4D8158234329408150BE
:104E600027490224425823432A40425000228F25DA
:104E70002449254C4250254942502C314258AA43DE
:104E8000425023494258AA4342501B4A81584B4042
:104E900023404B408350F0BD1449013A144D425019
:104EA0004759882239005140ADE7A023044C9B00AC
:104EB000065975E7024C8823065932005A4071E7BB
:104EC0007818000001040000DBB6C1FF7C18000068
:104ED000381800008888FDFF3C18000058180000B2
:104EE0005C180000881800008C18000008180000EA
:104EF000701800007418000004180000301800003A
:104F00003418000050180000BFFF00305418000093
:104F100084180000882230B5012452018358A3432D
:104F200083508D780B8884582B438D882B43094DF3
:104F300063402B4063408350CA798B79064C1343FE
:104F40000A7A055913437E226B4013406B4003518C
:104F500030BDC04618670200041100000A78034BF8
:104F6000C2504A78083BC2507047C0460810000043
:104F7000002310B5040003604360836081814366B1
:104F8000C281036143618361190008225C3000F033
:104F90000BF90B4B246263620A4BA3620A4BE36278
:104FA0000A4B23630A4B9C4205D00A4B9C4202D019
:104FB000094B9C4203D12000583000F0DFF910BDAE
:104FC000F9500000215100005951000085510000A6
:104FD000FC18202064192020CC19202010B5034A89
:104FE0000349044800F06CF810BDC04608002020BA
:104FF000195C00001800202041680B4B10B504001C
:10500000994201D000F008FEA168084B994202D0F5
:10501000200000F001FEE168054B994202D020001B
:1050200000F0FAFD10BDC046FC18202064192020B5
:10503000CC19202010B5094B094A04211A600948EF
:105040000022FFF795FF012209210748FFF790FF93
:10505000022212210548FFF78BFF10BD341A2020D1
:10506000DD4F0000FC18202064192020CC192020DE
:1050700010B5024800F083F910BDC0463D1A20204B
:1050800010B5024800F07CF910BDC0463D1A202042
:1050900010B50400FFF7ECFF236A002B02D0FFF7E6
:1050A000EFFF10BD044B2362044B1B68002BF6D1AD
:1050B000FFF7C0FFF3E7C046F94F0000341A202085
:1050C000F7B51400002600900191A5686768013FBC
:1050D00004D52468002CF8D13000FEBDAB89012B2B
:1050E00008D90E22AB5E013304D029000098019B41
:1050F000984706436835EAE770B50C000E25495F0E
:1051000000F0EAF8002803DB636D1B18636570BDCF
:10511000A389024A1340A381F9E7C046FFEFFFFFCE
:10512000F8B51F008B8905000C001600DB0505D5BE
:105130000E23C95E0022022300F0BAF8A389054AB3
:1051400028001340A38132000E23E15E3B0000F0F3
:10515000D7F8F8BDFFEFFFFF70B50C000E25495FD3
:1051600000F0A6F80C22A35E421C03D1044A1340AF
:10517000A38170BD802252011343A3816065F8E7CB
:10518000FFEFFFFF10B50E23C95E00F015F810BD4C
:105190000B0010B5034902000868816800F01EFA90
:1051A00010BDC0461400202003008218934200D195
:1051B000704719700133F9E7002370B5064D0400FC
:1051C00008002B60FDF7F4FB431C03D12B68002B78
:1051D00000D0236070BDC046381A2020334B70B514
:1051E0001B68040083425FD0C369002B27D0DB68B3
:1051F000002B0DD00025E369DB685959002918D12F
:105200000435802DF7D1E3692000D96800F0C2F899
:10521000E3691968002902D0200000F0BBF8E369B7
:105220009D68002D0BD0290020002D6800F0B2F8F9
:10523000F7E70E68200000F0ADF83100DEE76169A5
:10524000002902D0200000F0A5F8E169002902D071
:10525000200000F09FF8216B002902D0200000F010
:1052600099F8616B002902D0200000F093F8A16B3F
:10527000002902D0200000F08DF8A16C002902D096
:10528000200000F087F8616C002902D0200000F0B7
:1052900081F8E16A002902D0200000F07BF8236A3F
:1052A000002B01D02000984770BDC046140020207C
:1052B00070B50400080011001A000023054D2B6092
:1052C000FDF786FB431C03D12B68002B00D0236025
:1052D00070BDC046381A202070B5040008001100C7
:1052E0001A000023054D2B60FDF77AFB431C03D108
:1052F0002B68002B00D0236070BDC046381A2020D8
:1053000070B50400080011001A000023054D2B6041
:10531000FDF76EFB431C03D12B68002B00D02360EC
:1053200070BDC046381A2020014B18687047C0462F
:105330001400202070B500260C4C0D4D641BA410E9
:10534000A64209D10026FDF781FE0A4C0A4D641BD6
:10535000A410A64205D170BDB300EB5898470136A2
:10536000EEE7B300EB5898470136F2E7C061000062
:10537000C0610000C0610000C0610000704770475C
:105380007047002310B59A4200D110BDCC5CC454C4
:105390000133F8E770B505000C1E10D0043C2368FB
:1053A000002B00DAE418280000F0E0F81D4A13682A
:1053B000002B05D163601460280000F0DFF870BD99
:1053C000A34208D9206821188B42F3D119685B6881
:1053D00009182160EEE71A005B68002B01D0A34298
:1053E000F9D911685018A0420BD12068091850183B
:1053F00011608342E0D118685B6841181160536006
:10540000DAE7A04202D90C232B60D5E720682118E7
:105410008B4203D119685B6809182160636054608E
:10542000CAE7C046441A202070B50F4E0D003168FF
:105430000400002902D100F0B7FC306029002000F0
:1054400000F0B2FC431C03D101256D42280070BD61
:105450000323C51C9D43A842F8D0291A200000F060
:10546000A3FC0130F2D1EFE7401A2020F7B5032268
:10547000CB1C9343083305001F000C2B34D20C27A0
:10548000B94233D8280000F071F8374E33681C0059
:10549000002C2FD139002800FFF7C6FF0400431C61
:1054A0005FD134680094009B002B4AD1002C52D06D
:1054B00023682800E3180099019300F075FC019B14
:1054C000834248D123682800FF1A3900FFF7ACFF58
:1054D000013040D02368DB19236033685A68002A02
:1054E00033D1009B336019E0002BC9DA0C232B6009
:1054F0000020FEBD2168C91B20D40B290AD9E2195E
:105500002760A34204D1326063681160536005E0F4
:105510005A60F9E76268A3420ED13260280000F0B9
:105520002DF8200007220B30231D9043C21A984209
:10553000DFD01B1AA350DCE75A60EFE72300646852
:10554000A6E7009C63680093ADE71A005B68A3427E
:10555000FBD10023DAE70C2328002B6000F00EF8C3
:10556000C6E70760DAE7C046441A202010B50248B3
:10557000FFF705FF10BDC0463C1A202010B50248B9
:10558000FFF7FEFE10BDC0463C1A2020936810B500
:10559000013B9360002B04DA9469A34207DB0A29DC
:1055A00005D01368581C10601970080010BD00F079
:1055B0005EFB0100F9E7F8B506000F001400D518EE
:1055C000AC4201D1002007E021783A003000FFF71B
:1055D000DDFF0134431CF3D1F8BD0000F0B59FB0EE
:1055E0000D0017001E000290002804D0036A002B53
:1055F00001D1FFF74DFD6B6EDB0705D4AB899B0531
:1056000002D4A86DFFF7BBFEAB891B0702D52B693F
:10561000002B13D12900029800F06CFB00280DD05C
:105620006B6EDB0703D5012040421FB0F0BDAB8994
:105630009B05F8D4A86DFFF7A3FEF4E7002306ACA2
:105640006361203363761033A37605963E0033788A
:10565000002B01D0252B48D1F31B0393BE420BD066
:105660003A0029000298FFF7A6FF013000D1AAE016
:105670006369039A9B1863613378002B00D1A2E021
:105680000122532100235242626002AA5218771C61
:105690002360E360A3601370A365574B05221800D5
:1056A0003978039300F092FB7E1C226800281ED1FB
:1056B000D30604D5202302A9533009180B70130711
:1056C00004D553202B2302A909180B703B782A2BF1
:1056D00015D03E0000210A20E3683278771C303A6A
:1056E000092A4ED9002910D116E00136AFE7039BF5
:1056F0003700C01A0123834013432360CDE7059B85
:10570000191D1B680591002B01DBE36004E05B427F
:10571000E36002231343236033782E2B0CD173787C
:105720002A2B33D1059B02361A1D1B680592002BCC
:1057300001DA01235B426360304F03223800317885
:1057400000F044FB002806D04023C01B83402268A1
:10575000013613432360317806222948771C2176CD
:1057600000F034FB00283DD02648002821D1072234
:10577000059B073393430833059363691B186361E3
:1057800064E743433E0001219B18A6E700230A205B
:105790001900013663603278771C303A092A03D940
:1057A000002BC9D06160C7E741433E00012389183F
:1057B000F1E705AA009221002A00134B029800E0AD
:1057C00000BF431CD9D16B6EDB0705D4AB899B05A9
:1057D00002D4A86DFFF7D4FDAB895B0600D522E7A4
:1057E000606922E705AA009221002A00064B029870
:1057F00000F07CF8E5E7C046886100008E6100009B
:105800009261000000000000B7550000F7B51600D7
:1058100001938A680B690C000090934200DA130030
:105820002200336043321278002A01D00133336002
:1058300023689B0602D5336802333360226806234F
:1058400015001D401A4227D0230043331B785A1EEF
:1058500093412268920630D4220001990098089D55
:105860004332A847013025D0062223680025134083
:10587000042B05D13368E568ED1AEB43DB171D40B7
:10588000A3682269934201DD9B1AED180026B542F8
:1058900020D1002010E00135E36832689B1AAB424A
:1058A000D2DD2200012301990098089F1932B847E0
:1058B0000130F0D101204042FEBD3020E1184331DB
:1058C000087021005A1C45310978A218433202336E
:1058D0001170C1E72200012301990098089F1A3234
:1058E000B8470130E6D00136D1E70000F0B58BB003
:1058F00006920A0043320793059003920A7E0C0039
:10590000109B782A09D8622A0BD8002A00D1BBE064
:105910007A490491582A00D18FE0250042352A7037
:1059200022E0100063381528F7D8FCF743FF160073
:105930001F00F6FFF6FFF6FFF6FF1F00F6FFF6FF6B
:10594000F6FFF6FFA00036007F00F6FFF6FFB1007D
:10595000F6FF3600F6FFF6FF830025001A68423591
:10596000111D196013682B7001239FE018680968E6
:10597000021D0D060BD506681A60002E03DA2D23D2
:10598000039A764213705D4B0A27049319E0066868
:105990001A604906F1D536B2EFE71A68096840CABD
:1059A000080602D4490600D5B6B21A60237E534ACF
:1059B0000A2704926F2B00D1023F230000224333B9
:1059C0001A706368A360002B06DB04212268039D24
:1059D0008A43226033430CD0039D30003900FAF72C
:1059E000F5FB049B013D5B5C2B70330006009F427E
:1059F000F3D9082F09D12368DB0706D5626823692C
:105A00009A4202DC3023013D2B70039B5B1B236118
:105A1000079B210000930598069B09AAFFF7F6FE55
:105A2000013048D1012040420BB0F0BD202209686E
:105A30000A432260782232490491210045310A70DC
:105A40001968226840C9100602D4500600D5B6B2C3
:105A50001960D30702D5202313432360002E01D001
:105A60001027AAE72022236893432360F8E71A68E7
:105A70000D68101D4969186013682E0601D519605C
:105A800002E06D06FBD519800023039D2361BFE76B
:105A90001A68111D1960156800212800626800F05D
:105AA00095F9002801D0401B6060636823610023E2
:105AB000039A1370ACE72A00236906990598079D9D
:105AC000A8470130AED023689B0715D4099BE06836
:105AD0009842A9DA1800A7E7220001230699059841
