:100000000080202009080000050800000508000005
:1000100000000000000000000000000000000000E0
:10002000000000000000000000000000812200002D
:1000300000000000000000003122000081200000CC
:10004000050800000508000005080000050800007C
:10005000050800000508000005080000050800006C
:100060000000000005080000050800000000000076
:100070000000000005080000050800000508000059
:10008000050800000508000005080000050800003C
:100090000508000005080000000000000000000046
:1000A0000508000005080000000000000000000036
:1000B0000508000000000000050800000508000019
:1000C000002243088B4274D303098B425FD3030A97
:1000D0008B4244D3030B8B4228D3030C8B420DD3AA
:1000E000FF22090212BA030C8B4202D31212090238
:1000F00065D0030B8B4219D300E0090AC30B8B4276
:1001000001D3CB03C01A5241830B8B4201D38B0323
:10011000C01A5241430B8B4201D34B03C01A5241C8
:10012000030B8B4201D30B03C01A5241C30A8B420B
:1001300001D3CB02C01A5241830A8B4201D38B02F6
:10014000C01A5241430A8B4201D34B02C01A52419A
:10015000030A8B4201D30B02C01A5241CDD2C3090C
:100160008B4201D3CB01C01A524183098B4201D388
:100170008B01C01A524143098B4201D34B01C01A73
:10018000524103098B4201D30B01C01A5241C308EB
:100190008B4201D3CB00C01A524183088B4201D35A
:1001A0008B00C01A524143088B4201D34B00C01A46
:1001B0005241411A00D20146524110467047FFE7B2
:1001C00001B5002000F006F802BDC0460029F7D0B6
:1001D00076E770477047C04670B58024044E054DE1
:1001E000A401FA207451400001F0FAF8F9E7C04682
:1001F00000200A40B012000000B583B000F0CAFA37
:100200000023019301330093802200230449054811
:1002100001F0B2F8012800D0FEE701F001F9FEE795
:1002200080280000D9010000F8B51A4A1A4B1B4F6C
:100230001B4E1C4D1C4C1D481D49FA50F250EA50F3
:10024000E250C250CA501B49CA501B49CA501B49F0
:10025000CA501B49CA508021C905CA501949CA5001
:10026000194A1349043BFA50F250EA50E250C25086
:10027000CA5010491020CA500F49CA500F49CA50DD
:100280000F49CA508021C905CA500E49CA5002F010
:1002900043F8F8BD030000B10408000000000A4064
:1002A00000200A4000A086400080864000400840B0
:1002B000002086400000864000000F400080104073
:1002C00000804640000044400100002686209C2219
:1002D00030B58024254B26499850264AA4028C50DC
:1002E000A02418518024E4028C50B8241851802096
:1002F000800388508820043418518024E4038C50F3
:1003000084241C508020400188508C2001341C50D3
:1003100080258020ED00800188505C658D509C65B3
:10032000802424018C50144959605C685C60996099
:100330009968996080215C6889040C435C609C68C2
:10034000214399608221D9600C49902499618321CD
:10035000D96219510A4C5C62D961023999679521B9
:10036000084B49015850985030BDC046008042406B
:1003700000000A40D012000083000C00820004003C
:100380008300040000200A40002103200C4B0D4A8A
:1003900099500D490A6882430A600C4A02389958FC
:1003A0008143995099580A48014099503021094B8E
:1003B0001A688A431A601A6821398A431A6070479A
:1003C00000F00A400813000000010B400811000073
:1003D000FFFEFFFF04010B4030B51D4983B01D48EF
:1003E00001F0DEFF1C491B481A4D02F055F81B4A6C
:1003F0001B49AB5828000B40AB5000230022009350
:10040000002102F03BF828000022002102F026F82B
:10041000FA21012428000022890002F015F80023A7
:10042000280000220021009402F028F82800012270
:10043000002102F013F8FA2101222800890002F0BD
:1004400003F80322074BEC50083BEA5003B030BDE1
:10045000FC28000000A08640F428000004180000DA
:100460007F00FFFF0811000030B51D4983B01D4813
:1004700001F096FF1C491B481A4D02F00DF81B4A6B
:100480001B49AB5828000B40AB50002300220093BF
:10049000002101F0F3FF28000022002101F0DEFF1F
:1004A000FA21012428000022890001F0CDFF002359
:1004B000280000220021009401F0E0FF2800012222
:1004C000002101F0CBFFFA2101222800890001F070
:1004D000BBFF0322074BEC50083BEA5003B030BD92
:1004E000F028000000808640E82800000418000082
:1004F0007F00FFFF0811000030B51D4983B01D4883
:1005000001F04EFF1C491B481A4D01F0C5FF1B4A64
:100510001B49AB5828000B40AB500023002200932E
:10052000002101F0ABFF28000022002101F096FF1E
:10053000FA21012428000022890001F085FF002310
:10054000280000220021009401F098FF28000122D9
:10055000002101F083FFFA2101222800890001F027
:1005600073FF0322074BEC50083BEA5003B030BD49
:10057000E428000000400840DC28000004180000C7
:100580007F00FFFF0811000030B51D4983B01D48F2
:1005900001F006FF1C491B481A4D01F07DFF1B4A64
:1005A0001B49AB5828000B40AB500023002200939E
:1005B000002101F063FF28000022002101F04EFF1E
:1005C000FA21012428000022890001F03DFF0023C8
:1005D000280000220021009401F050FF2800012291
:1005E000002101F03BFFFA2101222800890001F0DF
:1005F0002BFF0322074BEC50083BEA5003B030BD01
:10060000D828000000208640D028000004180000F0
:100610007F00FFFF0811000010B50649064801F0F1
:10062000BFFE0649044801F0C9FE0122044B0249FD
:10063000CA5010BDCC28000000008640B828000039
:100640000811000010B50949094801F06BFE90231C
:10065000C02207485B01C158D2000A43C250802221
:10066000C15852000A43C25010BDC046B428000011
:1006700000000F4070B51649164801F0F9FF164901
:10068000144801F0D1FF8822124C5201A35813499B
:1006900025000B40A350D0231149605843401B0450
:1006A0001B0C4340635015213F230E4824586140E2
:1006B0000B40012163402B500B482B582C580B400A
:1006C00063400B4063402B50AB580B43AB5070BDA5
:1006D000B028000000801040A4280000FF7FFEFF2B
:1006E00010110000141100000411000070B5104931
:1006F000104801F04BFE10490E4801F027FE0D4C4A
:100700000E4A0121A058250003004B409B059B0D7C
:100710004340A35012223F2309482458624013400B
:100720006340084A2B50AB580B43AB5070BDC046DA
:10073000942800000080464098280000081100001E
:100740000C11000004110000802010B50849C005FC
:1007500001F0C2FD8C2380200022C0055B01C25045
:1007600088220121520183580B43835010BDC0469B
:100770008C2800007047C04688210022024B4901A6
:100780005A5002495A50704700004440041100007A
:100790007047C04610B5FFF747FDFFF797FDFFF71D
:1007A000F3FDFFF719FEFFF75FFEFFF7A5FEFFF76A
:1007B000EBFEFFF731FFFFF745FFFFF75BFFFFF7AA
:1007C00095FFFFF7C1FFFFF7D5FFFFF7D5FFFFF755
:1007D000DFFF00239C21064A5354064A5354064A1D
:1007E0001C315354054A5354054A9439535410BD8F
:1007F000A002202000022020440120208800202088
:1008000060002020FEE7C0461548164B10B5984200
:1008100007D2013B1A1A920801321349920001F0E3
:10082000C9FF1248124B984207D2013B1A1A92088C
:1008300001321049920001F0BDFF0F480F4B984262
:1008400007D2013B1A1A920801320021920001F0EE
:1008500019FF01F089FFFFF7CFFCFFF7D3FF10BDB1
:100860000000202060002020B82900000000202087
:10087000000020208028000060002020281A20206E
:100880007047C0460300083301224360C360036120
:1008900000235242826003607047C0460023036118
:1008A0007047C046030030B50D6808336A1C0DD090
:1008B0001C005B681A68AA42FAD94B609960036809
:1008C0008C60013361600861036030BD0469636856
:1008D000F3E7C0460369416882688A6051605968DD
:1008E000814205D000220261186801381860704703
:1008F0005A60F7E770B5050001F0A6FB4523EC5CF4
:1009000064B2002C16DD2E00243604E0013CE2B275
:1009100064B2002A0ED06B6A002B0BD0300000F0BE
:10092000C3FE0028F2D0013C00F07AFFE2B264B2CC
:10093000002AF0D14523FF22EA5401F091FB01F097
:1009400083FB4423EC5C64B2002C16DD2E001036D1
:1009500004E0013CE2B264B2002A0ED02B69002B05
:100960000BD0300000F0A0FE0028F2D0013C00F0D7
:1009700057FFE2B264B2002AF0D14423FF22EA54C6
:1009800001F06EFB70BDC04670B504000D0000287C
:1009900034D0C36B002B2FD0016C1A0C080C002A2A
:1009A0001DD100282CD101F04FFB216CE36B226894
:1009B0004B43D0185B1A6260D218A060E260FF233C
:1009C00044220020A063A3540132A354002D1AD165
:1009D0002369002B20D101F043FB012070BD0028CA
:1009E0000AD1081C9BB289B2594380B293B24343E7
:1009F000090C5B181B0CD6D072B6FEE772B6FEE788
:100A0000021C181CEEE720001030FFF73BFF20000F
:100A10002430FFF737FFDEE72000103000F044FEFF
:100A20000028D8D001F004FBD5E7C04670B582B0ED
:100A30001C006B461D7E002C0ED000280AD0002A18
:100A40000CD0002906D050230193019B502B1DD0C0
:100A500072B6FEE772B6FEE772B6FEE70029F9D17C
:100A600050230193019B502BF2D12200019B46237E
:100A70000126E654E0632164200001212260FFF793
:100A800083FF4C232000E55402B070BD019BEEE7CC
:100A9000F0B5CE46474680B585B004000D00019202
:100AA000002800D174E000294AD000F0E1FE0028BF
:100AB0004BD001F0C9FAA36B9946002B6AD1019B78
:100AC000002B35D002A800F069FE00234427984689
:100AD000452601F0C5FA00F0F3FC01F0B5FAE35D3C
:100AE0005BB2013301D14346E355A35D5BB20133F1
:100AF00001D14346A35501F0B3FA01A902A800F0C1
:100B000059FE002826D101F09FFAA36B002B2ED0AE
:100B100001F0A6FA2000FFF7EDFE00F0D9FC01F08D
:100B200093FAA36B9946002B34D1019B002BD0D1B3
:100B300001F096FA002005B0C0BCB946B046F0BD41
:100B4000036C002BB1D072B6FEE7019B002BB0D036
:100B500072B6FEE72000FFF7CDFE00F0B9FC01F011
:100B600073FAA36B002BE3D001F07AFAD7E701F018
:100B700077FA20000199243000F060FD2000FFF793
:100B8000B9FE00F0A5FC0028C9D101F051FAC6E772
:100B900072B6FEE7226C002A0AD0E168A3688918C1
:100BA000E160994201D32168E160280001F002FE72
:100BB0004B46013BA3632369002B03D101F050FA9C
:100BC0000120B8E72000103000F06EFD0028F5D0BD
:100BD00001F02EFAF2E7C04670B5040016000D00D1
:100BE00001F032FA4422A35C5BB2013301D100234D
:100BF000A3544522A35C5BB2013301D10023A3546B
:100C000001F02EFAA36B002B03D02000FFF772FE39
:100C100070BD200032002900243000F021FDF4E7EF
:100C2000F0B5C64600B5040001F00EFA374A384E5A
:100C30001368013313603368002B35D0354BE26AFB
:100C400098461B68002B29D0334D34490B6801337B
:100C50000B606364324B1968914200D21A609300B2
:100C60009B189B00E9184A68A26090688446674612
:100C7000E060201D78609060EA5861610132EA50BE
:100C800001F0EEF943461B68002B04D03368DA6AA2
:100C9000E36A9A4211D380BCB846F0BD3368DB6A80
:100CA0009342D1D83460CFE734601368012B07D06A
:100CB000184BE26A9846184DC7E701F0B9F9EAE720
:100CC000C823154D98462F00A84438001437FFF765
:100CD000D9FDB845F9D1134B98461800FFF7D2FD5E
:100CE000114F3800FFF7CEFD1048FFF7CBFD10483D
:100CF000FFF7C8FD0F48FFF7C5FD42460E4B1A60CF
:100D00000E4BE26A1F60034B98469EE76803202063
:100D1000A40420205C032020DC0320204C0320209E
:100D200060032020C8032020B40320209803202043
:100D3000840320206C032020B0032020AC0320205B
:100D4000F8B54746CE460400254B80B51E68254BB6
:100D5000254D1F68254B89461B6828689846043036
:100D6000FFF7B8FD631C18D02B6834195C60A642ED
:100D700008D9296840460431FFF794FDC0BCB94644
:100D8000B046F8BD296838000431FFF78BFD184BD9
:100D90001A68A242F2D91C60F0E74B46002B0CD136
:100DA0002A68731E53609E42E3D8296838000431D4
:100DB000FFF778FD0E4B1B68E0E70E4B29685A6879
:100DC0008A6090682968C860296804314160296890
:100DD000043191602A6853611A6801321A60CDE7C4
:100DE00064032020B0032020A4042020AC03202092
:100DF000480320206C032020F8B5CE46474680B536
:100E00000A9D960007000C003200A521286B984629
:100E100001F038FC2B6B9946002C0CD029000022E5
:100E20003431A35C8B54002B02D00132102AF8D14C
:100E300043230022EA54089B092B01D972B6FEE72E
:100E4000089B281DEB62EB64FFF728FD2800183093
:100E5000FFF724FD0A23089A28009B1A90220021FC
:100E6000AB6152002D616D62603001F00BFC164BDE
:100E700001206B661A00D033EB662B00002168322C
:100E8000F833AA66186059608023104A5B00EA5064
:100E90000F4A0433EA500F4A0433EA50043E0B224F
:100EA00030000433EA52063BFF3B48449843424635
:100EB000390001F003F9099B2860002B00D01D6068
:100EC000C0BCB946B046F8BDE81820200E33CDAB03
:100ED00034126DE6ECDE0500F0B5C6461C4D00B5DB
:100EE0002B68002B2AD01B4B862798461A4EFF37BB
:100EF00001F0AAF84346DB68DC68201DFFF7EAFC36
:100F00003368013B33602B68013B2B6001F0A8F88C
:100F10002000603001F0BEFBE35D002B05D0012B0B
:100F20000FD0022B07D072B6FEE7206B00F044FF13
:100F3000200000F041FF2B68002BD9D180BCB846BF
:100F4000F0BD200000F038FF2B68002BD0D1F5E772
:100F5000800320208403202068032020F0B54E4623
:100F6000DE4657464546524BE0B51E6883B0013613
:100F70001E60002E00D178E04E4900220B68944696
:100F80009E4262D34C4B98461B681B68002B59D07D
:100F900000239946494B4A4D9A464A4B01919B463C
:100FA0004346B0461E0039E049465961116801398F
:100FB00011609A6A002A0ED0DC69196AA160DC69A6
:100FC0004C601900546818318C424BD049469962E4
:100FD0001168013911605246D96A1268914201D9EB
:100FE000524611608A0052189200AC1861689960EC
:100FF0008F68DF6078608860A9585C610131A95012
:101000005A461168DA6ACB6A93429B4162465B4258
:101010001A43336894461B68002B12D03368DB6890
:10102000DB685A68904539D39868D9685A698160F5
:10103000986848605168181D8142B5D1D9685160DF
:10104000B2E7019901235B420B601F4B1868431EF6
:1010500098416346184303B0F0BCBB46B246A9466C
:10106000A046F0BD196A5160B0E7134B1A681268C8
:10107000002A01D072B6FEE7144A19681068186099
:10108000116013490A6801320A601A681268002A5E
:1010900007D1012307495B420B606EE701990A60A3
:1010A000D3E71B680349DB681B680B6065E7C04634
:1010B0006403202048032020B00320206003202068
:1010C000DC032020A404202054032020AC03202093
:1010D00050032020F0B54546DE4657464E46E0B563
:1010E000514D83B02B68013B2B602B68002B58D1EE
:1010F0004E4B1B68002B54D04D4F3B68002B00D14A
:101100008FE04C4B4C4C9C464C4B019599464C4BBC
:101110009A460023984601339B4632E04146996245
:101120001168013911609868D9685A6981609868B6
:1011300048605168181D81423ED011680139116024
:101140006246D96A1268914201D9624611608A00EA
:1011500052189200A518696899608E68DE60706008
:101160008860A1585D610131A1504A461168DA6A70
:10117000CB6A9A4202D953465A461A603B68002B02
:101180001DD0FB68DB68D869196A9A6A8160D869E2
:1011900048601900506818318842BFD1196A5160FF
:1011A000BCE7002400F05CFF200003B0F0BCBB46AD
:1011B000B246A946A046F0BDD9685160BDE7214BB3
:1011C000019D1A681268002A27D01B68DB681A681C
:1011D0001D4B1A601D4E3468002C14D0012708E006
:1011E000FFF7BCFE002801D053461F60013C002CD5
:1011F00008D02B68002BF3D03368013C01333360F7
:10120000002CF6D1346053461B68002BC9D00B4B21
:1012100001241B6800F00CFFC4E70B4B013A1A6075
:10122000D8E7074B9A46D5E74003202068032020E3
:101230009803202060032020DC032020A404202029
:1012400054032020B00320204803202058032020EE
:10125000F8B5254B4746CE469946244B80B598466F
:10126000234C244D244F254EFFF736FE2368002BD8
:1012700021D12B68DB6A002BF6D13B68012BF3D818
:101280004B4642461B6812689B1A012BECD9336807
:10129000013333604B461A6843461B689A4220D399
:1012A0002368002B0CD02B6800F0CEFE3368002B97
:1012B00003D172B6FEE72B68D6E7FFF70BFFD3E743
:1012C0002B68DB6A002BEFD13B68012BECD84B4637
:1012D000186843461B68C01A0128E5D900F0F2FDE2
:1012E000E2E772B6FEE7C0464803202064032020F0
:1012F00060032020A4042020DC03202040032020C1
:10130000F0B5C646002400B586B01D000D9B804692
:101310000F0016000494002B0CD00E9B002B07D05E
:10132000C4235B000593059A9A4205D072B6FEE786
:1013300072B6FEE772B6FEE700210E98059B01F03B
:10134000A1F90E9B0D9A0E991A6386230222FF3390
:10135000CA5404AB01930C9B3200404602910093A7
:1013600039002B00FFF748FD0E98FFF759FC049851
:1013700006B080BCB846F0BDF0B5CE46474680B555
:10138000070085B0900088461600994600F052FC90
:10139000051E22D0C420400000F04CFC041E19D0D1
:1013A000C4220021520001F06DF90D9B25630193C9
:1013B0000C9B320041463800009302944B46FFF7E5
:1013C0001BFD2000FFF72CFC012005B0C0BCB94676
:1013D000B046F0BD280000F0EFFC01204042F4E7E9
:1013E00010B500280CD00D4C23680133236023680E
:1013F000012B08D072B6FEE7FFF76CFE002801D182
:1014000000F016FE10BD0021FFF79AFC00F01CFE54
:101410002368002BF0D172B6FEE7C04640032020BF
:1014200010B500248CB01022002108A801F02AF980
:101430001A4B07AA06A905A808930594069400F07C
:1014400033FF059B079A0293069B1548019300946E
:10145000002308A9FFF754FF124B1860002803D19E
:10146000114B1B680CB010BD00F0B6FB012803D077
:101470000130F5D172B6FEE772B60C4B0C4A1B6810
:101480006033136001220B4B52421A600A4B186002
:101490000A4B1C6000F062FEE2E7C04649444C453E
:1014A000511200004403202000290000A404202041
:1014B00010002020480320205C032020640320200B
:1014C000024A1368013313607047C046400320206E
:1014D00010B500F0B9FD044B1B68002B01D172B6AA
:1014E000FEE7FFF7F7FD10BD40032020014B186811
:1014F0007047C0466403202070B5124D124A2B6815
:1015000011681B180400994201D272B6FEE71268F6
:101510009A4203D02B681B192B6070BD0B4B1B68C4
:10152000002B01D172B6FEE7002801D172B6FEE7AA
:1015300000F08AFD064A013C13680133136000F095
:101540008FFDE7E76403202048032020400320208C
:1015500058032020064B10B51B68002B02D1FFF763
:10156000FDFC10BD034A0020136801331360F8E747
:101570004003202058032020294B70B51B68002B06
:1015800003D00122274B1A6070BD264A264C1360F7
:1015900021682268236812681B6B9A4204D90B6B7E
:1015A00022491A688A4230D021682068343100F01C
:1015B00079FE1F4D1F482A6891008B189B00C65862
:1015C000002E0CD1143BC31804E01968143B013AF7
:1015D000002903D1002AF8D172B6FEE791008918DC
:1015E00089004618736808315B684018736083424D
:1015F00008D0DB6823602A60236823680E4A6033C2
:101600001360C1E7F3687360F3E759689142CBD187
:101610009A688A42C8D1DB689342C5D1C9E7C046FF
:101620004003202054032020A4042020A5A5A5A524
:1016300060032020DC0320201000202010B50C00C7
:10164000002809D0054B19681831FFF72BF9012143
:101650002000FFF775FB10BD72B6FEE7A404202042
:10166000030070B508001100002B18D00D4A5C680B
:101670001568EC61A66815682E62156818357560E6
:10168000156812681835A56093621A6801321A60ED
:10169000002901D001204042FFF752FB70BD72B615
:1016A000FEE7C046A4042020C36870B5DB68002BA9
:1016B00058D0D869196A9A6A8160D8694860180058
:1016C0005168183081424AD000219962116801396D
:1016D00011602A4A1268002A16D0294A5168D96135
:1016E0008C681C626060886011689A6201311160C8
:1016F000244A00201168DA6ACB6A9A4203D901228F
:10170000214B01301A6070BD9868D9685A698160B0
:1017100098681C1D48605168A1422BD0116801399E
:1017200011601A4AD96A1068814200D911608A0092
:101730001748521892008518696899608E68DE60B3
:1017400074608C6081585D6101318150114A11686B
:101750000968002908D1104A01391160C8E7196ADF
:101760005160B1E772B6FEE71268D26811680A4AA2
:101770001160BDE7D9685160D0E7C0464003202022
:1017800098032020A404202054032020600320205C
:10179000DC032020B003202048032020034B1B68DB
:1017A0000360034B1B6843607047C0465003202012
:1017B00064032020F0B5C64604000D0000B50028E3
:1017C0001CD0002918D000F03FFC134A2B68116888
:1017D000581C1FD0114E60683768B84627684745C7
:1017E0000ED088420CD8002301242B6000F038FC76
:1017F000200080BCB846F0BD72B6FEE772B6FEE7C8
:101800000F1ABB42EFD95B1A1B182B603368236099
:10181000136863600024E9E764032020500320205C
:101820000122014B1A607047540320200B4B00200B
:101830001B68002B03D10A4B1B68002B00D070479C
:10184000084B1B68002BFAD1074B084A1B6810682D
:10185000013BC01A434258410130F0E79803202071
:101860005403202058032020680320206C032020EC
:10187000054B01201B68002B04D0044B1868434221
:10188000584140007047C0465C03202040032020A0
:10189000F0B583B000F0D8FB0E4C2568002D03D0C6
:1018A00000F0DEFB03B0F0BD0B4F3800FEF7EAFF9F
:1018B0000A4E3000FEF7E6FF094B0C211F60094B72
:1018C0000A201E60084A094B0095FFF7AFF8206018
:1018D000E6E7C046780520209805202084052020D2
:1018E000800520207C052020F8042020A80420204A
:1018F000F8B5CE4647461C4B80B599461B68050097
:10190000DB680F00DC68231D18009846FEF7E2FF35
:101910002822A35C590710D401218B43A354200033
:10192000236A9847C0BCB946B046F8BD7D1BAB42A0
:1019300013D82000236A98473500A3692461EE1864
:101940006660B742F2D2AF4201D2B542F1D94B46FE
:1019500041461868FEF7A6FFE1E7044B41461868C8
:10196000FEF7A0FFDBE7C046800520207C05202095
:10197000F0B557464546DE464E46924BE0B5984692
:10198000914B87B09B46914B914E9A46914F03AD38
:1019900033681A689146002A00D0C1E0FFF790FD35
:1019A000FFF7A4FD43461B680400834260D843460A
:1019B00018605B461B681A6853425A414B463868A8
:1019C000191BFFF709F9FFF783FD002800D1EDE0AF
:1019D0000C220021280000F055FE28239946002201
:1019E00029003868FFF754F80028D1D02B68002B65
:1019F000F5DBAC68002CF2D06369002B02D0201D0F
:101A0000FEF768FFFFF772FD43461B68020098422D
:101A100063D343461A602B68092BE0D851469B00DC
:101A2000CB589F464B46E35C68689C460123614661
:101A30000B4349466354A169246143186360934290
:101A400061D8101A814200D9AAE0604640077DD4CF
:101A5000012362469A4313002822A3542000236ADC
:101A60009847BCE70121DB6849421868FFF740FF4F
:101A700033681A68002AF5D15A46126832605A460D
:101A8000136043461C60FFF723FDA1E74B4601218D
:101A9000E35C0B43494663546B68A361002B00D1A0
:101AA0008EE09B1863602461211D934234D85B460D
:101AB0001868FEF7F7FE92E74B460122E35C93437A
:101AC0004A46A3548BE74B460222E35C1A4239D0C4
:101AD000012293434A46A35481E7336819680029D9
:101AE0000BD000900121DB6849421868FFF700FF26
:101AF00033681A68002AF5D1009A5946096831609E
:101B000059460B6085E7904201D998429DD93068CB
:101B1000211DFEF7C7FE62E73068FEF7C3FE5EE7F1
:101B2000DB681B689946FFF7CBFCFFF7DFFC4346F9
:101B30001B68040083429BD843461860814538D90E
:101B400000223BE7200000F037F948E740460096C6
:101B5000B8460190170007E0FB1A8B4216D3236AA0
:101B6000200098473300A1695E1866602461B7427F
:101B7000F2D29F4201D2B342F1D9009E019B30685C
:101B8000211D47469846FEF78DFE67E7019B4746B5
:101B900098465B46211D1868009EFEF783FE5DE7B0
:101BA0005B46211D1868FEF77DFE18E700F040FA3D
:101BB0000EE7FFF78DFC21004846FFF799FE07E787
:101BC00072B6FEE7700520207C0520200429000065
:101BD000800520207805202000B589B0FFF758FE49
:101BE000104B1B68002B1AD0002307AA06A905A8D2
:101BF0000593069300F064FB059B079A0293069BEE
:101C0000094901930923094800930023FFF778FB52
:101C1000074B1860002802D0012009B000BD72B641
:101C2000FEE7C046780520208428000071190000D6
:101C300074052020F8B5CE464746431E80B50A33CA
:101C400028D8072304001A000834224023422FD149
:101C5000FFF736FC504D27002B68002B43D0002C9B
:101C60001EDB4E4F3B689C46A34219D34C494D485E
:101C70000B68834233D34C4A8618B3422FD8884628
:101C80005968A1424CD21A68002A49D0824221D216
:101C900072B6FEE7FFF714FC3F4D2B68002B20D0F7
:101CA000FFF716FC00252800C0BCB946B046F8BDB9
:101CB0001300093BA342EDD31030841AFFF700FC58
:101CC000354D27002B68002B0DD0002FE8DB002CB2
:101CD000C7D1E5E7B242DBD898461300D0E772B629
:101CE000FEE70027002407202E4B1A001900184297
:101CF00002D0DA1D824311000020294E706031604D
:101D00002A4EB44607266344B34318609A1A5860B3
:101D10002B600B60264B4A601A60204B1A60D4E798
:101D20002A689A42BCD042461568083585420BD3D2
:101D30001D4A91464844854206D8424618681060BC
:101D4000A14203D272B6FEE772B6FEE70E1B102E5A
:101D500009D91A19510701D072B6FEE741465660FB
:101D600010600A60210062461148521A04683A6005
:101D7000A24200D20260802212060A435A60002268
:101D80001A600C4A136801331360FFF7A1FB6B075D
:101D900000D188E772B6FEE7BC052020B8052020F8
:101DA000C0052020C8052020FF0B0000F80B000014
:101DB000B4052020B005202070B500283DD00400D7
:101DC000304D083C2600AC4208D32F4BEB189C4208
:101DD00004D86368002B31DB72B6FEE772B6FEE70B
:101DE0005A002A49520862600B422ED1FFF768FB65
:101DF000274A6168136827485B18136003001A00BC
:101E00001B689C42FBD8824206D0AA421BD31E48C4
:101E100084466544AA4216D850681518AC4219D0B9
:101E20006018834226D02360B24200D016601A4A5E
:101E3000136801331360FFF74BFB70BD2268002A63
:101E4000CED072B6FEE772B6FEE70021083A00F087
:101E500019FCCBE70918501851608342E7D10F48AD
:101E60001600006898420AD058681B6841187160D3
:101E70003360D9E7094800688342F5D1D3E713609E
:101E8000D5E7C046C8052020FF0B0000F8FFFF7F04
:101E9000B8052020C0052020AC052020BC0520204E
:101EA000002382B00193064B1B68013301D072B648
:101EB000FEE772B6019B002BFCD002B07047C04613
:101EC00000002020F8B5404B05001E6872B6BFF335
:101ED0004F8FBFF36F8FFFF7A9FC002859D0062260
:101EE0003A4B3B4C1A603B4B19682368002900D1E0
:101EF00019003200AE425AD8501E4343364D5B188B
:101F00002968490104D580218904296021685B1A68
:101F1000324E3168994200D25B1A002501273049C0
:101F20000B602C490D60294D296839432960002A2E
:101F300004D0BFF34F8F30BFBFF36F8F62B6BFF3D4
:101F40004F8FBFF36F8F72B6BFF34F8FBFF36F8F9B
:101F500006251E490D6009682568C9031BD46A431C
:101F60001C4B29001E681700901BFEF7A9F8431CA4
:101F70006B43F61B99191A4B19600022154B1A6016
:101F8000124B07321A602368154A013B1360FFF7B2
:101F9000B3FA62B6F8BD0F4A12685219013AD31A61
:101FA00032689A420CD36B1E0D4A1360E5E72A0093
:101FB000501E4343084D5B1829684901A8D5A2E784
:101FC000AB42F1D9EFE7C046CC11202010E000E091
:101FD000D011202018E000E004ED00E0C81120201E
:101FE00014E000E0FA220B4BD2011A608322002198
:101FF000094B92001A60094BAF3AFF3A1A60084B3E
:102000005A3A1A60074A1160074A084911600722C4
:102010001A607047D0112020CC112020C811202038
:1020200010E000E018E000E014E000E0FF7C0000B9
:102030008022044B52051A60BFF34F8FBFF36F8F9E
:102040007047C04604ED00E072B6044A13680133DD
:102050001360BFF34F8FBFF36F8F704700002020D6
:10206000064B1A68002A01D172B6FEE71A68013AD7
:102070001A601B68002B00D162B670470000202058
:1020800010B500F0CDF80400FFF764FA002803D083
:102090008022034B52051A60200000F0C5F810BDE5
:1020A00004ED00E010B58369023B1B78642B01D07E
:1020B00072B6FEE700F094F810BDC04610B580245B
:1020C000031F64041C60043B19601749043B19603A
:1020D0001649043B19601649043B19601549043B35
:1020E00019601549043B1960043B1A60134A043B0C
:1020F0001A60134A043B1A60124A043B1A60124ADF
:10210000043B1A60114A043B1A60114A043B1A60EE
:10211000104A043B1A60104A043B1A6003234438F7
:102120005B42036010BDC046A11E000012121212D5
:102130000303030302020202010101011111111143
:1021400010101010090909090808080807070707EF
:10215000060606060505050504040404194B30B5FA
:102160001A68194BD16A83B0994201D072B6FEE762
:10217000164B926B9A4201D072B6FEE7FF22144BC7
:102180001204196800240A431A60FF221968120613
:102190000A431A600F4B1C60FFF724FF0E4D2C60A2
:1021A00000F036F8FFF7E8F901942B68013301D00D
:1021B00072B6FEE772B6019B002BFCD0002003B084
:1021C00030BDC04608ED00E0812200003122000051
:1021D00020ED00E01CED00E00000202000000000E9
:1021E000074A1168086804C8022181F31488203066
:1021F00080F30988BFF36F8F1047C046C046C046C2
:10220000A4042020000000000000000000000000E6
:1022100062B6BFF34F8FBFF36F8F64DFC046C04617
:10222000EFF3108072B6704780F310887047C04695
:10223000EFF309800E4A1168243808607346F8C02D
:1022400044464D4656465F46F0C072B6FFF794F9D5
:1022500062B6074A116808681430F0C8A046A9465B
:10226000B246BB4680F309882438F8C81847C046F0
:10227000A404202000000000000000000000000076
:1022800004207146084203D0EFF30980044B18473D
:10229000EFF30880024B1847C046C046C046C04610
:1022A000A5200000FEE7C046034B0360034B0B6014
:1022B000802313607047C0466017202060152020DF
:1022C000034B0360034B0B60802313607047C046D1
:1022D000D8132020D4112020A9230C4A30B50D7822
:1022E00084581B062B430A4D63402B4063408350A8
:1022F0008822E025520184584B68ED0463402B404E
:10230000634083504A78034BC25030BD0808000038
:10231000030000FF10110000831E043BC046FCD2E6
:102320007047C0460C2330B5074C0A7805596A40FF
:1023300013406B4003510723043C05594A786A4017
:1023400013406B40035130BD04100000882230B5AB
:102350004D880B8952012B438D7984582B43094DAD
:1023600063402B4063408350CD798B8809782B43A1
:102370000B43BA21044A4900845863400B40634030
:10238000835030BD7F330000041100000A78034BF6
:10239000C2504A78043BC2507047C0460410000047
:1023A0000A78044BC2504A78083BC2508A78024BE4
:1023B000C2507047081000000C1100001A4B4A6808
:1023C00030B5C2500B78222B08D8184A9B00D3583E
:1023D0009F46174A174C8358234083500A69164B6F
:1023E000164DC250164ACB68845863402B40634058
:1023F0000F4C83500359134A134003510B780A7A48
:1024000005591A433F236A4013406B40035130BDC6
:102410008023C025064A9B058458AD0563402B40A8
:1024200063408350DAE7C046081800002C290000FA
:1024300004180000FFFFFFCF10180000777702009C
:10244000301800007F00FFFF034B92009C46604461
:10245000801801607047C04610180000064B9200BB
:102460009C4660448218E0201368400359400140B4
:10247000594011607047C0463018000030B5054D16
:1024800003ACAC4624786044A4001A4300190A4304
:10249000026030BD50180000F0B54B79002B2CD0F5
:1024A0000B79002B00D18FE0202B00D087E0494C26
:1024B000494B06591A007240484D2A407240025159
:1024C000474A845863402B4063408350454B464CF9
:1024D000C2582240C250454A8358234083500023AB
:1024E0008F24434A8350434A8350434A8358A3432B
:1024F0008350424A8358A34383500B790A688C79EE
:10250000002B53D0202B13D03D4952084250A0221B
:10251000920011003B4D47597940304E314079408F
:102520004151394945586A4032406A4042501BE0A7
:102530003349013A4250284A324D11004759274E3B
:1025400079403140794041512F4945586A403240E5
:102550006A4042508022C0262C4992054558B60553
:102560006A4032406A404250294A1F4D81582343F5
:102570002940815027490224425823432A4042508F
:1025800000228F252449254C4250254942502C31A8
:102590004258AA43425023494258AA4342501B4A38
:1025A00081584B4023404B408350F0BD1449013AC1
:1025B000144D42504759882239005140ADE7A023BD
:1025C000044C9B00065975E7024C882306593200DB
:1025D0005A4071E77818000001040000DBB6C1FF23
:1025E0007C180000381800008888FDFF3C180000A7
:1025F000581800005C180000881800008C180000B3
:10260000081800007018000074180000041800007A
:10261000301800003418000050180000BFFF0030D0
:102620005418000084180000882230B5012452019B
:102630008358A34383508D780B8884582B438D880F
:102640002B43094D63402B4063408350CA798B79FB
:10265000064C13430A7A055913437E226B401340FC
:102660006B40035130BDC0461867020004110000E2
:102670000A78034BC2504A78083BC2507047C046A4
:102680000810000003008218934200D170471970AF
:102690000133F9E7334B70B51B68040083425FD008
:1026A000C369002B27D0DB68002B0DD00025E36920
:1026B000DB685959002918D10435802DF7D1E36919
:1026C0002000D96800F080F8E3691968002902D079
:1026D000200000F079F8E3699D68002D0BD02900F7
:1026E00020002D6800F070F8F7E70E68200000F079
:1026F0006BF83100DEE76169002902D0200000F0AC
:1027000063F8E169002902D0200000F05DF8216B38
:10271000002902D0200000F057F8616B002902D098
:10272000200000F051F8A16B002902D0200000F039
:102730004BF8A16C002902D0200000F045F8616C34
:10274000002902D0200000F03FF8E16A002902D001
:10275000200000F039F8236A002B01D020009847B0
:1027600070BDC0461000202070B500260C4C0D4DE9
:10277000641BA410A64209D10026FEF781F80A4C7A
:102780000A4D641BA410A64205D170BDB300EB58DE
:1027900098470136EEE7B300EB5898470136F2E769
:1027A000B8290000B8290000B8290000B8290000A5
:1027B00070477047002310B59A4200D110BDCC5C21
:1027C000C4540133F8E7000070B505000C1E10D0AA
:1027D000043C2368002B00DAE418280000F03EF8DF
:1027E0001D4A1368002B05D163601460280000F0B7
:1027F0003DF870BDA34208D9206821188B42F3D15F
:1028000019685B6809182160EEE71A005B68002B05
:1028100001D0A342F9D911685018A0420BD1206809
:102820000918501811608342E0D118685B6841189C
:1028300011605360DAE7A04202D90C232B60D5E780
:10284000206821188B4203D119685B680918216040
:1028500063605460CAE7C046241A202010B50248BD
:10286000FFF7A6FF10BDC046201A202010B5024871
:10287000FFF79FFF10BDC046201A20200000000077
:1028800061707000546D7220537663000105000082
:1028900000000000080000000400200000000710F5
:1028A00000000000000018000000003000000000E0
:1028B0000800000008000000000000000000000008
:1028C0000000000000000000000000000800000000
:1028D000E80300000001000008000000E803000019
:1028E0000001000008000000E803000000010000F3
:1028F00008000000E80300000001000008000000DC
:1029000009000000DE190000241A0000241A00004B
:10291000B81A00008C1A0000C61A0000241A000021
:10292000241A0000B81A00008C1A0000D2230000FC
:10293000DC230000D2230000DC230000DC230000A5
:10294000DC230000DC230000DC230000DC2300008B
:10295000DC230000DC230000DC230000DC2300007B
:10296000DC230000DC230000DC2300001024000036
:10297000DC23000010240000DC230000DC23000026
:10298000DC230000DC230000DC230000DC2300004B
:10299000DC230000DC230000DC230000DC2300003B
:1029A000DC230000DC230000DC23000010240000F6
:0829B000DC23000010240000EC
:1029B800AAAAAAAA0000000003000000E818202024
:1029C8001400202000000000E818202050192020C2
:1029D800B8192020000000000000000000000000DE
:1029E80000000000000000000000000000000000DF
:1029F80000000000000000000000000000000000CF
:102A080000000000000000000000000000000000BE
:04000003000000C039
:00000001FF
